{
	"WhileLoop.sol": {
		"While": {
			"abi": [
				{
					"inputs": [],
					"name": "countEvenNumbers",
					"outputs": [
						{
							"internalType": "uint256",
							"name": "",
							"type": "uint256"
						}
					],
					"stateMutability": "view",
					"type": "function"
				}
			],
			"devdoc": {
				"kind": "dev",
				"methods": {},
				"version": 1
			},
			"evm": {
				"assembly": "    /* \"WhileLoop.sol\":64:561  contract While {... */\n  mstore(0x40, 0x80)\n    /* \"WhileLoop.sol\":85:136  uint256[] numbers = [1, 2, 3, 4, 5, 6, 7, 8, 9, 10] */\n  mload(0x40)\n  dup1\n  0x0140\n  add\n  0x40\n  mstore\n  dup1\n    /* \"WhileLoop.sol\":106:107  1 */\n  0x01\n    /* \"WhileLoop.sol\":85:136  uint256[] numbers = [1, 2, 3, 4, 5, 6, 7, 8, 9, 10] */\n  0xff\n  and\n  dup2\n  mstore\n  0x20\n  add\n    /* \"WhileLoop.sol\":109:110  2 */\n  0x02\n    /* \"WhileLoop.sol\":85:136  uint256[] numbers = [1, 2, 3, 4, 5, 6, 7, 8, 9, 10] */\n  0xff\n  and\n  dup2\n  mstore\n  0x20\n  add\n    /* \"WhileLoop.sol\":112:113  3 */\n  0x03\n    /* \"WhileLoop.sol\":85:136  uint256[] numbers = [1, 2, 3, 4, 5, 6, 7, 8, 9, 10] */\n  0xff\n  and\n  dup2\n  mstore\n  0x20\n  add\n    /* \"WhileLoop.sol\":115:116  4 */\n  0x04\n    /* \"WhileLoop.sol\":85:136  uint256[] numbers = [1, 2, 3, 4, 5, 6, 7, 8, 9, 10] */\n  0xff\n  and\n  dup2\n  mstore\n  0x20\n  add\n    /* \"WhileLoop.sol\":118:119  5 */\n  0x05\n    /* \"WhileLoop.sol\":85:136  uint256[] numbers = [1, 2, 3, 4, 5, 6, 7, 8, 9, 10] */\n  0xff\n  and\n  dup2\n  mstore\n  0x20\n  add\n    /* \"WhileLoop.sol\":121:122  6 */\n  0x06\n    /* \"WhileLoop.sol\":85:136  uint256[] numbers = [1, 2, 3, 4, 5, 6, 7, 8, 9, 10] */\n  0xff\n  and\n  dup2\n  mstore\n  0x20\n  add\n    /* \"WhileLoop.sol\":124:125  7 */\n  0x07\n    /* \"WhileLoop.sol\":85:136  uint256[] numbers = [1, 2, 3, 4, 5, 6, 7, 8, 9, 10] */\n  0xff\n  and\n  dup2\n  mstore\n  0x20\n  add\n    /* \"WhileLoop.sol\":127:128  8 */\n  0x08\n    /* \"WhileLoop.sol\":85:136  uint256[] numbers = [1, 2, 3, 4, 5, 6, 7, 8, 9, 10] */\n  0xff\n  and\n  dup2\n  mstore\n  0x20\n  add\n    /* \"WhileLoop.sol\":130:131  9 */\n  0x09\n    /* \"WhileLoop.sol\":85:136  uint256[] numbers = [1, 2, 3, 4, 5, 6, 7, 8, 9, 10] */\n  0xff\n  and\n  dup2\n  mstore\n  0x20\n  add\n    /* \"WhileLoop.sol\":133:135  10 */\n  0x0a\n    /* \"WhileLoop.sol\":85:136  uint256[] numbers = [1, 2, 3, 4, 5, 6, 7, 8, 9, 10] */\n  0xff\n  and\n  dup2\n  mstore\n  pop\n  0x00\n  swap1\n  0x0a\n  tag_1\n  swap3\n  swap2\n  swap1\n  tag_2\n  jump\t// in\ntag_1:\n  pop\n    /* \"WhileLoop.sol\":64:561  contract While {... */\n  callvalue\n  dup1\n  iszero\n  tag_3\n  jumpi\n  0x00\n  dup1\n  revert\ntag_3:\n  pop\n  jump(tag_4)\ntag_2:\n  dup3\n  dup1\n  sload\n  dup3\n  dup3\n  sstore\n  swap1\n  0x00\n  mstore\n  keccak256(0x00, 0x20)\n  swap1\n  dup2\n  add\n  swap3\n  dup3\n  iszero\n  tag_5\n  jumpi\n  swap2\n  0x20\n  mul\n  dup3\n  add\ntag_6:\n  dup3\n  dup2\n  gt\n  iszero\n  tag_7\n  jumpi\n  dup3\n  mload\n  dup3\n  swap1\n  0xff\n  and\n  swap1\n  sstore\n  swap2\n  0x20\n  add\n  swap2\n  swap1\n  0x01\n  add\n  swap1\n  jump(tag_6)\ntag_7:\ntag_5:\n  pop\n  swap1\n  pop\n  tag_8\n  swap2\n  swap1\n  tag_9\n  jump\t// in\ntag_8:\n  pop\n  swap1\n  jump\t// out\ntag_9:\ntag_10:\n  dup1\n  dup3\n  gt\n  iszero\n  tag_11\n  jumpi\n  0x00\n  dup2\n  0x00\n  swap1\n  sstore\n  pop\n  0x01\n  add\n  jump(tag_10)\ntag_11:\n  pop\n  swap1\n  jump\t// out\ntag_4:\n  dataSize(sub_0)\n  dup1\n  dataOffset(sub_0)\n  0x00\n  codecopy\n  0x00\n  return\nstop\n\nsub_0: assembly {\n        /* \"WhileLoop.sol\":64:561  contract While {... */\n      mstore(0x40, 0x80)\n      callvalue\n      dup1\n      iszero\n      tag_1\n      jumpi\n      0x00\n      dup1\n      revert\n    tag_1:\n      pop\n      jumpi(tag_2, lt(calldatasize, 0x04))\n      shr(0xe0, calldataload(0x00))\n      dup1\n      0x306d3e02\n      eq\n      tag_3\n      jumpi\n    tag_2:\n      0x00\n      dup1\n      revert\n        /* \"WhileLoop.sol\":143:429  function countEvenNumbers() public view returns (uint256) {... */\n    tag_3:\n      tag_4\n      tag_5\n      jump\t// in\n    tag_4:\n      mload(0x40)\n      tag_6\n      swap2\n      swap1\n      tag_7\n      jump\t// in\n    tag_6:\n      mload(0x40)\n      dup1\n      swap2\n      sub\n      swap1\n      return\n    tag_5:\n        /* \"WhileLoop.sol\":192:199  uint256 */\n      0x00\n        /* \"WhileLoop.sol\":211:224  uint256 count */\n      dup1\n        /* \"WhileLoop.sol\":227:228  0 */\n      0x00\n        /* \"WhileLoop.sol\":211:228  uint256 count = 0 */\n      swap1\n      pop\n        /* \"WhileLoop.sol\":238:247  uint256 i */\n      0x00\n        /* \"WhileLoop.sol\":262:400  while (i < numbers.length) {... */\n    tag_9:\n        /* \"WhileLoop.sol\":273:280  numbers */\n      0x00\n        /* \"WhileLoop.sol\":273:287  numbers.length */\n      dup1\n      sload\n      swap1\n      pop\n        /* \"WhileLoop.sol\":269:270  i */\n      dup2\n        /* \"WhileLoop.sol\":269:287  i < numbers.length */\n      lt\n        /* \"WhileLoop.sol\":262:400  while (i < numbers.length) {... */\n      iszero\n      tag_10\n      jumpi\n        /* \"WhileLoop.sol\":307:331  isEvenNumber(numbers[i]) */\n      tag_11\n        /* \"WhileLoop.sol\":320:327  numbers */\n      0x00\n        /* \"WhileLoop.sol\":328:329  i */\n      dup3\n        /* \"WhileLoop.sol\":320:330  numbers[i] */\n      dup2\n      sload\n      dup2\n      lt\n      tag_12\n      jumpi\n      tag_13\n      tag_14\n      jump\t// in\n    tag_13:\n    tag_12:\n      swap1\n      0x00\n      mstore\n      keccak256(0x00, 0x20)\n      add\n      sload\n        /* \"WhileLoop.sol\":307:319  isEvenNumber */\n      tag_16\n        /* \"WhileLoop.sol\":307:331  isEvenNumber(numbers[i]) */\n      jump\t// in\n    tag_11:\n        /* \"WhileLoop.sol\":303:373  if (isEvenNumber(numbers[i])) {... */\n      iszero\n      tag_17\n      jumpi\n        /* \"WhileLoop.sol\":351:358  count++ */\n      dup2\n      dup1\n      tag_18\n      swap1\n      tag_19\n      jump\t// in\n    tag_18:\n      swap3\n      pop\n      pop\n        /* \"WhileLoop.sol\":303:373  if (isEvenNumber(numbers[i])) {... */\n    tag_17:\n        /* \"WhileLoop.sol\":386:389  i++ */\n      dup1\n      dup1\n      tag_20\n      swap1\n      tag_19\n      jump\t// in\n    tag_20:\n      swap2\n      pop\n      pop\n        /* \"WhileLoop.sol\":262:400  while (i < numbers.length) {... */\n      jump(tag_9)\n    tag_10:\n        /* \"WhileLoop.sol\":417:422  count */\n      dup2\n        /* \"WhileLoop.sol\":410:422  return count */\n      swap3\n      pop\n      pop\n      pop\n        /* \"WhileLoop.sol\":143:429  function countEvenNumbers() public view returns (uint256) {... */\n      swap1\n      jump\t// out\n        /* \"WhileLoop.sol\":435:559  function isEvenNumber(uint256 _number) private pure returns (bool) {... */\n    tag_16:\n        /* \"WhileLoop.sol\":496:500  bool */\n      0x00\n        /* \"WhileLoop.sol\":535:536  0 */\n      dup1\n        /* \"WhileLoop.sol\":530:531  2 */\n      0x02\n        /* \"WhileLoop.sol\":520:527  _number */\n      dup4\n        /* \"WhileLoop.sol\":520:531  _number % 2 */\n      tag_22\n      swap2\n      swap1\n      tag_23\n      jump\t// in\n    tag_22:\n        /* \"WhileLoop.sol\":520:536  _number % 2 == 0 */\n      eq\n        /* \"WhileLoop.sol\":520:551  _number % 2 == 0 ? true : false */\n      tag_24\n      jumpi\n        /* \"WhileLoop.sol\":546:551  false */\n      0x00\n        /* \"WhileLoop.sol\":520:551  _number % 2 == 0 ? true : false */\n      jump(tag_25)\n    tag_24:\n        /* \"WhileLoop.sol\":539:543  true */\n      0x01\n        /* \"WhileLoop.sol\":520:551  _number % 2 == 0 ? true : false */\n    tag_25:\n        /* \"WhileLoop.sol\":512:552  return (_number % 2 == 0 ? true : false) */\n      swap1\n      pop\n        /* \"WhileLoop.sol\":435:559  function isEvenNumber(uint256 _number) private pure returns (bool) {... */\n      swap2\n      swap1\n      pop\n      jump\t// out\n        /* \"#utility.yul\":7:84   */\n    tag_26:\n        /* \"#utility.yul\":44:51   */\n      0x00\n        /* \"#utility.yul\":73:78   */\n      dup2\n        /* \"#utility.yul\":62:78   */\n      swap1\n      pop\n        /* \"#utility.yul\":7:84   */\n      swap2\n      swap1\n      pop\n      jump\t// out\n        /* \"#utility.yul\":90:208   */\n    tag_27:\n        /* \"#utility.yul\":177:201   */\n      tag_33\n        /* \"#utility.yul\":195:200   */\n      dup2\n        /* \"#utility.yul\":177:201   */\n      tag_26\n      jump\t// in\n    tag_33:\n        /* \"#utility.yul\":172:175   */\n      dup3\n        /* \"#utility.yul\":165:202   */\n      mstore\n        /* \"#utility.yul\":90:208   */\n      pop\n      pop\n      jump\t// out\n        /* \"#utility.yul\":214:436   */\n    tag_7:\n        /* \"#utility.yul\":307:311   */\n      0x00\n        /* \"#utility.yul\":345:347   */\n      0x20\n        /* \"#utility.yul\":334:343   */\n      dup3\n        /* \"#utility.yul\":330:348   */\n      add\n        /* \"#utility.yul\":322:348   */\n      swap1\n      pop\n        /* \"#utility.yul\":358:429   */\n      tag_35\n        /* \"#utility.yul\":426:427   */\n      0x00\n        /* \"#utility.yul\":415:424   */\n      dup4\n        /* \"#utility.yul\":411:428   */\n      add\n        /* \"#utility.yul\":402:408   */\n      dup5\n        /* \"#utility.yul\":358:429   */\n      tag_27\n      jump\t// in\n    tag_35:\n        /* \"#utility.yul\":214:436   */\n      swap3\n      swap2\n      pop\n      pop\n      jump\t// out\n        /* \"#utility.yul\":442:622   */\n    tag_14:\n        /* \"#utility.yul\":490:567   */\n      0x4e487b7100000000000000000000000000000000000000000000000000000000\n        /* \"#utility.yul\":487:488   */\n      0x00\n        /* \"#utility.yul\":480:568   */\n      mstore\n        /* \"#utility.yul\":587:591   */\n      0x32\n        /* \"#utility.yul\":584:585   */\n      0x04\n        /* \"#utility.yul\":577:592   */\n      mstore\n        /* \"#utility.yul\":611:615   */\n      0x24\n        /* \"#utility.yul\":608:609   */\n      0x00\n        /* \"#utility.yul\":601:616   */\n      revert\n        /* \"#utility.yul\":628:808   */\n    tag_28:\n        /* \"#utility.yul\":676:753   */\n      0x4e487b7100000000000000000000000000000000000000000000000000000000\n        /* \"#utility.yul\":673:674   */\n      0x00\n        /* \"#utility.yul\":666:754   */\n      mstore\n        /* \"#utility.yul\":773:777   */\n      0x11\n        /* \"#utility.yul\":770:771   */\n      0x04\n        /* \"#utility.yul\":763:778   */\n      mstore\n        /* \"#utility.yul\":797:801   */\n      0x24\n        /* \"#utility.yul\":794:795   */\n      0x00\n        /* \"#utility.yul\":787:802   */\n      revert\n        /* \"#utility.yul\":814:1047   */\n    tag_19:\n        /* \"#utility.yul\":853:856   */\n      0x00\n        /* \"#utility.yul\":876:900   */\n      tag_39\n        /* \"#utility.yul\":894:899   */\n      dup3\n        /* \"#utility.yul\":876:900   */\n      tag_26\n      jump\t// in\n    tag_39:\n        /* \"#utility.yul\":867:900   */\n      swap2\n      pop\n        /* \"#utility.yul\":922:988   */\n      0xffffffffffffffffffffffffffffffffffffffffffffffffffffffffffffffff\n        /* \"#utility.yul\":915:920   */\n      dup3\n        /* \"#utility.yul\":912:989   */\n      sub\n        /* \"#utility.yul\":909:1012   */\n      tag_40\n      jumpi\n        /* \"#utility.yul\":992:1010   */\n      tag_41\n      tag_28\n      jump\t// in\n    tag_41:\n        /* \"#utility.yul\":909:1012   */\n    tag_40:\n        /* \"#utility.yul\":1039:1040   */\n      0x01\n        /* \"#utility.yul\":1032:1037   */\n      dup3\n        /* \"#utility.yul\":1028:1041   */\n      add\n        /* \"#utility.yul\":1021:1041   */\n      swap1\n      pop\n        /* \"#utility.yul\":814:1047   */\n      swap2\n      swap1\n      pop\n      jump\t// out\n        /* \"#utility.yul\":1053:1233   */\n    tag_29:\n        /* \"#utility.yul\":1101:1178   */\n      0x4e487b7100000000000000000000000000000000000000000000000000000000\n        /* \"#utility.yul\":1098:1099   */\n      0x00\n        /* \"#utility.yul\":1091:1179   */\n      mstore\n        /* \"#utility.yul\":1198:1202   */\n      0x12\n        /* \"#utility.yul\":1195:1196   */\n      0x04\n        /* \"#utility.yul\":1188:1203   */\n      mstore\n        /* \"#utility.yul\":1222:1226   */\n      0x24\n        /* \"#utility.yul\":1219:1220   */\n      0x00\n        /* \"#utility.yul\":1212:1227   */\n      revert\n        /* \"#utility.yul\":1239:1415   */\n    tag_23:\n        /* \"#utility.yul\":1271:1272   */\n      0x00\n        /* \"#utility.yul\":1288:1308   */\n      tag_44\n        /* \"#utility.yul\":1306:1307   */\n      dup3\n        /* \"#utility.yul\":1288:1308   */\n      tag_26\n      jump\t// in\n    tag_44:\n        /* \"#utility.yul\":1283:1308   */\n      swap2\n      pop\n        /* \"#utility.yul\":1322:1342   */\n      tag_45\n        /* \"#utility.yul\":1340:1341   */\n      dup4\n        /* \"#utility.yul\":1322:1342   */\n      tag_26\n      jump\t// in\n    tag_45:\n        /* \"#utility.yul\":1317:1342   */\n      swap3\n      pop\n        /* \"#utility.yul\":1361:1362   */\n      dup3\n        /* \"#utility.yul\":1351:1386   */\n      tag_46\n      jumpi\n        /* \"#utility.yul\":1366:1384   */\n      tag_47\n      tag_29\n      jump\t// in\n    tag_47:\n        /* \"#utility.yul\":1351:1386   */\n    tag_46:\n        /* \"#utility.yul\":1407:1408   */\n      dup3\n        /* \"#utility.yul\":1404:1405   */\n      dup3\n        /* \"#utility.yul\":1400:1409   */\n      mod\n        /* \"#utility.yul\":1395:1409   */\n      swap1\n      pop\n        /* \"#utility.yul\":1239:1415   */\n      swap3\n      swap2\n      pop\n      pop\n      jump\t// out\n\n    auxdata: 0xa2646970667358221220ad37542c25374e885a53829a1a54b0e34090239562c882d75853f0be2a7cc6ac64736f6c63430008120033\n}\n",
				"bytecode": {
					"linkReferences": {},
					"object": "6080604052604051806101400160405280600160ff168152602001600260ff168152602001600360ff168152602001600460ff168152602001600560ff168152602001600660ff168152602001600760ff168152602001600860ff168152602001600960ff168152602001600a60ff16815250600090600a610082929190610095565b5034801561008f57600080fd5b50610104565b8280548282559060005260206000209081019282156100d6579160200282015b828111156100d5578251829060ff169055916020019190600101906100b5565b5b5090506100e391906100e7565b5090565b5b808211156101005760008160009055506001016100e8565b5090565b610251806101136000396000f3fe608060405234801561001057600080fd5b506004361061002b5760003560e01c8063306d3e0214610030575b600080fd5b61003861004e565b60405161004591906100fa565b60405180910390f35b6000806000905060005b6000805490508110156100b35761008c6000828154811061007c5761007b610115565b5b90600052602060002001546100bb565b156100a057818061009c90610173565b9250505b80806100ab90610173565b915050610058565b819250505090565b6000806002836100cb91906101ea565b146100d75760006100da565b60015b9050919050565b6000819050919050565b6100f4816100e1565b82525050565b600060208201905061010f60008301846100eb565b92915050565b7f4e487b7100000000000000000000000000000000000000000000000000000000600052603260045260246000fd5b7f4e487b7100000000000000000000000000000000000000000000000000000000600052601160045260246000fd5b600061017e826100e1565b91507fffffffffffffffffffffffffffffffffffffffffffffffffffffffffffffffff82036101b0576101af610144565b5b600182019050919050565b7f4e487b7100000000000000000000000000000000000000000000000000000000600052601260045260246000fd5b60006101f5826100e1565b9150610200836100e1565b9250826102105761020f6101bb565b5b82820690509291505056fea2646970667358221220ad37542c25374e885a53829a1a54b0e34090239562c882d75853f0be2a7cc6ac64736f6c63430008120033",
					"opcodes": "PUSH1 0x80 PUSH1 0x40 MSTORE PUSH1 0x40 MLOAD DUP1 PUSH2 0x140 ADD PUSH1 0x40 MSTORE DUP1 PUSH1 0x1 PUSH1 0xFF AND DUP2 MSTORE PUSH1 0x20 ADD PUSH1 0x2 PUSH1 0xFF AND DUP2 MSTORE PUSH1 0x20 ADD PUSH1 0x3 PUSH1 0xFF AND DUP2 MSTORE PUSH1 0x20 ADD PUSH1 0x4 PUSH1 0xFF AND DUP2 MSTORE PUSH1 0x20 ADD PUSH1 0x5 PUSH1 0xFF AND DUP2 MSTORE PUSH1 0x20 ADD PUSH1 0x6 PUSH1 0xFF AND DUP2 MSTORE PUSH1 0x20 ADD PUSH1 0x7 PUSH1 0xFF AND DUP2 MSTORE PUSH1 0x20 ADD PUSH1 0x8 PUSH1 0xFF AND DUP2 MSTORE PUSH1 0x20 ADD PUSH1 0x9 PUSH1 0xFF AND DUP2 MSTORE PUSH1 0x20 ADD PUSH1 0xA PUSH1 0xFF AND DUP2 MSTORE POP PUSH1 0x0 SWAP1 PUSH1 0xA PUSH2 0x82 SWAP3 SWAP2 SWAP1 PUSH2 0x95 JUMP JUMPDEST POP CALLVALUE DUP1 ISZERO PUSH2 0x8F JUMPI PUSH1 0x0 DUP1 REVERT JUMPDEST POP PUSH2 0x104 JUMP JUMPDEST DUP3 DUP1 SLOAD DUP3 DUP3 SSTORE SWAP1 PUSH1 0x0 MSTORE PUSH1 0x20 PUSH1 0x0 KECCAK256 SWAP1 DUP2 ADD SWAP3 DUP3 ISZERO PUSH2 0xD6 JUMPI SWAP2 PUSH1 0x20 MUL DUP3 ADD JUMPDEST DUP3 DUP2 GT ISZERO PUSH2 0xD5 JUMPI DUP3 MLOAD DUP3 SWAP1 PUSH1 0xFF AND SWAP1 SSTORE SWAP2 PUSH1 0x20 ADD SWAP2 SWAP1 PUSH1 0x1 ADD SWAP1 PUSH2 0xB5 JUMP JUMPDEST JUMPDEST POP SWAP1 POP PUSH2 0xE3 SWAP2 SWAP1 PUSH2 0xE7 JUMP JUMPDEST POP SWAP1 JUMP JUMPDEST JUMPDEST DUP1 DUP3 GT ISZERO PUSH2 0x100 JUMPI PUSH1 0x0 DUP2 PUSH1 0x0 SWAP1 SSTORE POP PUSH1 0x1 ADD PUSH2 0xE8 JUMP JUMPDEST POP SWAP1 JUMP JUMPDEST PUSH2 0x251 DUP1 PUSH2 0x113 PUSH1 0x0 CODECOPY PUSH1 0x0 RETURN INVALID PUSH1 0x80 PUSH1 0x40 MSTORE CALLVALUE DUP1 ISZERO PUSH2 0x10 JUMPI PUSH1 0x0 DUP1 REVERT JUMPDEST POP PUSH1 0x4 CALLDATASIZE LT PUSH2 0x2B JUMPI PUSH1 0x0 CALLDATALOAD PUSH1 0xE0 SHR DUP1 PUSH4 0x306D3E02 EQ PUSH2 0x30 JUMPI JUMPDEST PUSH1 0x0 DUP1 REVERT JUMPDEST PUSH2 0x38 PUSH2 0x4E JUMP JUMPDEST PUSH1 0x40 MLOAD PUSH2 0x45 SWAP2 SWAP1 PUSH2 0xFA JUMP JUMPDEST PUSH1 0x40 MLOAD DUP1 SWAP2 SUB SWAP1 RETURN JUMPDEST PUSH1 0x0 DUP1 PUSH1 0x0 SWAP1 POP PUSH1 0x0 JUMPDEST PUSH1 0x0 DUP1 SLOAD SWAP1 POP DUP2 LT ISZERO PUSH2 0xB3 JUMPI PUSH2 0x8C PUSH1 0x0 DUP3 DUP2 SLOAD DUP2 LT PUSH2 0x7C JUMPI PUSH2 0x7B PUSH2 0x115 JUMP JUMPDEST JUMPDEST SWAP1 PUSH1 0x0 MSTORE PUSH1 0x20 PUSH1 0x0 KECCAK256 ADD SLOAD PUSH2 0xBB JUMP JUMPDEST ISZERO PUSH2 0xA0 JUMPI DUP2 DUP1 PUSH2 0x9C SWAP1 PUSH2 0x173 JUMP JUMPDEST SWAP3 POP POP JUMPDEST DUP1 DUP1 PUSH2 0xAB SWAP1 PUSH2 0x173 JUMP JUMPDEST SWAP2 POP POP PUSH2 0x58 JUMP JUMPDEST DUP2 SWAP3 POP POP POP SWAP1 JUMP JUMPDEST PUSH1 0x0 DUP1 PUSH1 0x2 DUP4 PUSH2 0xCB SWAP2 SWAP1 PUSH2 0x1EA JUMP JUMPDEST EQ PUSH2 0xD7 JUMPI PUSH1 0x0 PUSH2 0xDA JUMP JUMPDEST PUSH1 0x1 JUMPDEST SWAP1 POP SWAP2 SWAP1 POP JUMP JUMPDEST PUSH1 0x0 DUP2 SWAP1 POP SWAP2 SWAP1 POP JUMP JUMPDEST PUSH2 0xF4 DUP2 PUSH2 0xE1 JUMP JUMPDEST DUP3 MSTORE POP POP JUMP JUMPDEST PUSH1 0x0 PUSH1 0x20 DUP3 ADD SWAP1 POP PUSH2 0x10F PUSH1 0x0 DUP4 ADD DUP5 PUSH2 0xEB JUMP JUMPDEST SWAP3 SWAP2 POP POP JUMP JUMPDEST PUSH32 0x4E487B7100000000000000000000000000000000000000000000000000000000 PUSH1 0x0 MSTORE PUSH1 0x32 PUSH1 0x4 MSTORE PUSH1 0x24 PUSH1 0x0 REVERT JUMPDEST PUSH32 0x4E487B7100000000000000000000000000000000000000000000000000000000 PUSH1 0x0 MSTORE PUSH1 0x11 PUSH1 0x4 MSTORE PUSH1 0x24 PUSH1 0x0 REVERT JUMPDEST PUSH1 0x0 PUSH2 0x17E DUP3 PUSH2 0xE1 JUMP JUMPDEST SWAP2 POP PUSH32 0xFFFFFFFFFFFFFFFFFFFFFFFFFFFFFFFFFFFFFFFFFFFFFFFFFFFFFFFFFFFFFFFF DUP3 SUB PUSH2 0x1B0 JUMPI PUSH2 0x1AF PUSH2 0x144 JUMP JUMPDEST JUMPDEST PUSH1 0x1 DUP3 ADD SWAP1 POP SWAP2 SWAP1 POP JUMP JUMPDEST PUSH32 0x4E487B7100000000000000000000000000000000000000000000000000000000 PUSH1 0x0 MSTORE PUSH1 0x12 PUSH1 0x4 MSTORE PUSH1 0x24 PUSH1 0x0 REVERT JUMPDEST PUSH1 0x0 PUSH2 0x1F5 DUP3 PUSH2 0xE1 JUMP JUMPDEST SWAP2 POP PUSH2 0x200 DUP4 PUSH2 0xE1 JUMP JUMPDEST SWAP3 POP DUP3 PUSH2 0x210 JUMPI PUSH2 0x20F PUSH2 0x1BB JUMP JUMPDEST JUMPDEST DUP3 DUP3 MOD SWAP1 POP SWAP3 SWAP2 POP POP JUMP INVALID LOG2 PUSH5 0x6970667358 0x22 SLT KECCAK256 0xAD CALLDATACOPY SLOAD 0x2C 0x25 CALLDATACOPY 0x4E DUP9 GAS MSTORE8 DUP3 SWAP11 BYTE SLOAD 0xB0 0xE3 BLOCKHASH SWAP1 0x23 SWAP6 PUSH3 0xC882D7 PC MSTORE8 CREATE 0xBE 0x2A PUSH29 0xC6AC64736F6C6343000812003300000000000000000000000000000000 "
				},
				"gasEstimates": {
					"creation": {
						"codeDepositCost": "118600",
						"executionCost": "infinite",
						"totalCost": "infinite"
					},
					"external": {
						"countEvenNumbers()": "infinite"
					},
					"internal": {
						"isEvenNumber(uint256)": "infinite"
					}
				},
				"methodIdentifiers": {
					"countEvenNumbers()": "306d3e02"
				}
			},
			"storageLayout": {
				"storage": [
					{
						"astId": 15,
						"contract": "WhileLoop.sol:While",
						"label": "numbers",
						"offset": 0,
						"slot": "0",
						"type": "t_array(t_uint256)dyn_storage"
					}
				],
				"types": {
					"t_array(t_uint256)dyn_storage": {
						"base": "t_uint256",
						"encoding": "dynamic_array",
						"label": "uint256[]",
						"numberOfBytes": "32"
					},
					"t_uint256": {
						"encoding": "inplace",
						"label": "uint256",
						"numberOfBytes": "32"
					}
				}
			},
			"userdoc": {
				"kind": "user",
				"methods": {},
				"version": 1
			}
		}
	}
}