{
	"TodoPractice.sol": {
		"TodoList": {
			"abi": [
				{
					"inputs": [
						{
							"internalType": "string",
							"name": "todo",
							"type": "string"
						}
					],
					"name": "addTodo",
					"outputs": [],
					"stateMutability": "nonpayable",
					"type": "function"
				},
				{
					"inputs": [],
					"name": "delTodo",
					"outputs": [],
					"stateMutability": "nonpayable",
					"type": "function"
				},
				{
					"inputs": [],
					"name": "getAllTodo",
					"outputs": [],
					"stateMutability": "nonpayable",
					"type": "function"
				},
				{
					"inputs": [],
					"name": "getAllTodoComplete",
					"outputs": [],
					"stateMutability": "nonpayable",
					"type": "function"
				},
				{
					"inputs": [
						{
							"internalType": "uint256",
							"name": "index",
							"type": "uint256"
						}
					],
					"name": "getTodo",
					"outputs": [
						{
							"internalType": "string",
							"name": "",
							"type": "string"
						}
					],
					"stateMutability": "view",
					"type": "function"
				},
				{
					"inputs": [],
					"name": "setCompleted",
					"outputs": [],
					"stateMutability": "nonpayable",
					"type": "function"
				},
				{
					"inputs": [
						{
							"internalType": "uint256",
							"name": "",
							"type": "uint256"
						}
					],
					"name": "todoCompleted",
					"outputs": [
						{
							"internalType": "string",
							"name": "",
							"type": "string"
						}
					],
					"stateMutability": "view",
					"type": "function"
				},
				{
					"inputs": [
						{
							"internalType": "uint256",
							"name": "",
							"type": "uint256"
						}
					],
					"name": "todos",
					"outputs": [
						{
							"internalType": "string",
							"name": "",
							"type": "string"
						}
					],
					"stateMutability": "view",
					"type": "function"
				}
			],
			"devdoc": {
				"kind": "dev",
				"methods": {},
				"version": 1
			},
			"evm": {
				"assembly": "    /* \"TodoPractice.sol\":63:879  contract TodoList {... */\n  mstore(0x40, 0x80)\n  callvalue\n  dup1\n  iszero\n  tag_1\n  jumpi\n  0x00\n  dup1\n  revert\ntag_1:\n  pop\n  dataSize(sub_0)\n  dup1\n  dataOffset(sub_0)\n  0x00\n  codecopy\n  0x00\n  return\nstop\n\nsub_0: assembly {\n        /* \"TodoPractice.sol\":63:879  contract TodoList {... */\n      mstore(0x40, 0x80)\n      callvalue\n      dup1\n      iszero\n      tag_1\n      jumpi\n      0x00\n      dup1\n      revert\n    tag_1:\n      pop\n      jumpi(tag_2, lt(calldatasize, 0x04))\n      shr(0xe0, calldataload(0x00))\n      dup1\n      0xbc8bc2b4\n      gt\n      tag_11\n      jumpi\n      dup1\n      0xbc8bc2b4\n      eq\n      tag_7\n      jumpi\n      dup1\n      0xdd68afb6\n      eq\n      tag_8\n      jumpi\n      dup1\n      0xe0a9a6fa\n      eq\n      tag_9\n      jumpi\n      dup1\n      0xfe1c7f6f\n      eq\n      tag_10\n      jumpi\n      jump(tag_2)\n    tag_11:\n      dup1\n      0x2e5295ee\n      eq\n      tag_3\n      jumpi\n      dup1\n      0x84d6b2ab\n      eq\n      tag_4\n      jumpi\n      dup1\n      0x95ffebf5\n      eq\n      tag_5\n      jumpi\n      dup1\n      0x982abb89\n      eq\n      tag_6\n      jumpi\n    tag_2:\n      0x00\n      dup1\n      revert\n        /* \"TodoPractice.sol\":742:781  function setCompleted() public {... */\n    tag_3:\n      tag_12\n      tag_13\n      jump\t// in\n    tag_12:\n      stop\n        /* \"TodoPractice.sol\":833:877  function getAllTodoComplete() public {... */\n    tag_4:\n      tag_14\n      tag_15\n      jump\t// in\n    tag_14:\n      stop\n        /* \"TodoPractice.sol\":265:342  function addTodo(string memory todo) public {... */\n    tag_5:\n      tag_16\n      0x04\n      dup1\n      calldatasize\n      sub\n      dup2\n      add\n      swap1\n      tag_17\n      swap2\n      swap1\n      tag_18\n      jump\t// in\n    tag_17:\n      tag_19\n      jump\t// in\n    tag_16:\n      stop\n        /* \"TodoPractice.sol\":655:692  function getAllTodo() public {... */\n    tag_6:\n      tag_20\n      tag_21\n      jump\t// in\n    tag_20:\n      stop\n        /* \"TodoPractice.sol\":124:145  string[] public todos */\n    tag_7:\n      tag_22\n      0x04\n      dup1\n      calldatasize\n      sub\n      dup2\n      add\n      swap1\n      tag_23\n      swap2\n      swap1\n      tag_24\n      jump\t// in\n    tag_23:\n      tag_25\n      jump\t// in\n    tag_22:\n      mload(0x40)\n      tag_26\n      swap2\n      swap1\n      tag_27\n      jump\t// in\n    tag_26:\n      mload(0x40)\n      dup1\n      swap2\n      sub\n      swap1\n      return\n        /* \"TodoPractice.sol\":463:608  function getTodo(uint256 index) public view returns (string memory) {... */\n    tag_8:\n      tag_28\n      0x04\n      dup1\n      calldatasize\n      sub\n      dup2\n      add\n      swap1\n      tag_29\n      swap2\n      swap1\n      tag_24\n      jump\t// in\n    tag_29:\n      tag_30\n      jump\t// in\n    tag_28:\n      mload(0x40)\n      tag_31\n      swap2\n      swap1\n      tag_27\n      jump\t// in\n    tag_31:\n      mload(0x40)\n      dup1\n      swap2\n      sub\n      swap1\n      return\n        /* \"TodoPractice.sol\":383:417  function delTodo() public {... */\n    tag_9:\n      tag_32\n      tag_33\n      jump\t// in\n    tag_32:\n      stop\n        /* \"TodoPractice.sol\":194:223  string[] public todoCompleted */\n    tag_10:\n      tag_34\n      0x04\n      dup1\n      calldatasize\n      sub\n      dup2\n      add\n      swap1\n      tag_35\n      swap2\n      swap1\n      tag_24\n      jump\t// in\n    tag_35:\n      tag_36\n      jump\t// in\n    tag_34:\n      mload(0x40)\n      tag_37\n      swap2\n      swap1\n      tag_27\n      jump\t// in\n    tag_37:\n      mload(0x40)\n      dup1\n      swap2\n      sub\n      swap1\n      return\n        /* \"TodoPractice.sol\":742:781  function setCompleted() public {... */\n    tag_13:\n      jump\t// out\n        /* \"TodoPractice.sol\":833:877  function getAllTodoComplete() public {... */\n    tag_15:\n      jump\t// out\n        /* \"TodoPractice.sol\":265:342  function addTodo(string memory todo) public {... */\n    tag_19:\n        /* \"TodoPractice.sol\":319:324  todos */\n      0x00\n        /* \"TodoPractice.sol\":330:334  todo */\n      dup2\n        /* \"TodoPractice.sol\":319:335  todos.push(todo) */\n      swap1\n      dup1\n      0x01\n      dup2\n      sload\n      add\n      dup1\n      dup3\n      sstore\n      dup1\n      swap2\n      pop\n      pop\n      0x01\n      swap1\n      sub\n      swap1\n      0x00\n      mstore\n      keccak256(0x00, 0x20)\n      add\n      0x00\n      swap1\n      swap2\n      swap1\n      swap2\n      swap1\n      swap2\n      pop\n      swap1\n      dup2\n      tag_42\n      swap2\n      swap1\n      tag_43\n      jump\t// in\n    tag_42:\n      pop\n        /* \"TodoPractice.sol\":265:342  function addTodo(string memory todo) public {... */\n      pop\n      jump\t// out\n        /* \"TodoPractice.sol\":655:692  function getAllTodo() public {... */\n    tag_21:\n      jump\t// out\n        /* \"TodoPractice.sol\":124:145  string[] public todos */\n    tag_25:\n      0x00\n      dup2\n      dup2\n      sload\n      dup2\n      lt\n      tag_45\n      jumpi\n      0x00\n      dup1\n      revert\n    tag_45:\n      swap1\n      0x00\n      mstore\n      keccak256(0x00, 0x20)\n      add\n      0x00\n      swap2\n      pop\n      swap1\n      pop\n      dup1\n      sload\n      tag_47\n      swap1\n      tag_48\n      jump\t// in\n    tag_47:\n      dup1\n      0x1f\n      add\n      0x20\n      dup1\n      swap2\n      div\n      mul\n      0x20\n      add\n      mload(0x40)\n      swap1\n      dup2\n      add\n      0x40\n      mstore\n      dup1\n      swap3\n      swap2\n      swap1\n      dup2\n      dup2\n      mstore\n      0x20\n      add\n      dup3\n      dup1\n      sload\n      tag_49\n      swap1\n      tag_48\n      jump\t// in\n    tag_49:\n      dup1\n      iszero\n      tag_50\n      jumpi\n      dup1\n      0x1f\n      lt\n      tag_51\n      jumpi\n      0x0100\n      dup1\n      dup4\n      sload\n      div\n      mul\n      dup4\n      mstore\n      swap2\n      0x20\n      add\n      swap2\n      jump(tag_50)\n    tag_51:\n      dup3\n      add\n      swap2\n      swap1\n      0x00\n      mstore\n      keccak256(0x00, 0x20)\n      swap1\n    tag_52:\n      dup2\n      sload\n      dup2\n      mstore\n      swap1\n      0x01\n      add\n      swap1\n      0x20\n      add\n      dup1\n      dup4\n      gt\n      tag_52\n      jumpi\n      dup3\n      swap1\n      sub\n      0x1f\n      and\n      dup3\n      add\n      swap2\n    tag_50:\n      pop\n      pop\n      pop\n      pop\n      pop\n      dup2\n      jump\t// out\n        /* \"TodoPractice.sol\":463:608  function getTodo(uint256 index) public view returns (string memory) {... */\n    tag_30:\n        /* \"TodoPractice.sol\":516:529  string memory */\n      0x60\n        /* \"TodoPractice.sol\":588:593  todos */\n      0x00\n        /* \"TodoPractice.sol\":594:599  index */\n      dup3\n        /* \"TodoPractice.sol\":588:600  todos[index] */\n      dup2\n      sload\n      dup2\n      lt\n      tag_54\n      jumpi\n      tag_55\n      tag_56\n      jump\t// in\n    tag_55:\n    tag_54:\n      swap1\n      0x00\n      mstore\n      keccak256(0x00, 0x20)\n      add\n        /* \"TodoPractice.sol\":581:600  return todos[index] */\n      dup1\n      sload\n      tag_58\n      swap1\n      tag_48\n      jump\t// in\n    tag_58:\n      dup1\n      0x1f\n      add\n      0x20\n      dup1\n      swap2\n      div\n      mul\n      0x20\n      add\n      mload(0x40)\n      swap1\n      dup2\n      add\n      0x40\n      mstore\n      dup1\n      swap3\n      swap2\n      swap1\n      dup2\n      dup2\n      mstore\n      0x20\n      add\n      dup3\n      dup1\n      sload\n      tag_59\n      swap1\n      tag_48\n      jump\t// in\n    tag_59:\n      dup1\n      iszero\n      tag_60\n      jumpi\n      dup1\n      0x1f\n      lt\n      tag_61\n      jumpi\n      0x0100\n      dup1\n      dup4\n      sload\n      div\n      mul\n      dup4\n      mstore\n      swap2\n      0x20\n      add\n      swap2\n      jump(tag_60)\n    tag_61:\n      dup3\n      add\n      swap2\n      swap1\n      0x00\n      mstore\n      keccak256(0x00, 0x20)\n      swap1\n    tag_62:\n      dup2\n      sload\n      dup2\n      mstore\n      swap1\n      0x01\n      add\n      swap1\n      0x20\n      add\n      dup1\n      dup4\n      gt\n      tag_62\n      jumpi\n      dup3\n      swap1\n      sub\n      0x1f\n      and\n      dup3\n      add\n      swap2\n    tag_60:\n      pop\n      pop\n      pop\n      pop\n      pop\n      swap1\n      pop\n        /* \"TodoPractice.sol\":463:608  function getTodo(uint256 index) public view returns (string memory) {... */\n      swap2\n      swap1\n      pop\n      jump\t// out\n        /* \"TodoPractice.sol\":383:417  function delTodo() public {... */\n    tag_33:\n      jump\t// out\n        /* \"TodoPractice.sol\":194:223  string[] public todoCompleted */\n    tag_36:\n      0x01\n      dup2\n      dup2\n      sload\n      dup2\n      lt\n      tag_64\n      jumpi\n      0x00\n      dup1\n      revert\n    tag_64:\n      swap1\n      0x00\n      mstore\n      keccak256(0x00, 0x20)\n      add\n      0x00\n      swap2\n      pop\n      swap1\n      pop\n      dup1\n      sload\n      tag_66\n      swap1\n      tag_48\n      jump\t// in\n    tag_66:\n      dup1\n      0x1f\n      add\n      0x20\n      dup1\n      swap2\n      div\n      mul\n      0x20\n      add\n      mload(0x40)\n      swap1\n      dup2\n      add\n      0x40\n      mstore\n      dup1\n      swap3\n      swap2\n      swap1\n      dup2\n      dup2\n      mstore\n      0x20\n      add\n      dup3\n      dup1\n      sload\n      tag_67\n      swap1\n      tag_48\n      jump\t// in\n    tag_67:\n      dup1\n      iszero\n      tag_68\n      jumpi\n      dup1\n      0x1f\n      lt\n      tag_69\n      jumpi\n      0x0100\n      dup1\n      dup4\n      sload\n      div\n      mul\n      dup4\n      mstore\n      swap2\n      0x20\n      add\n      swap2\n      jump(tag_68)\n    tag_69:\n      dup3\n      add\n      swap2\n      swap1\n      0x00\n      mstore\n      keccak256(0x00, 0x20)\n      swap1\n    tag_70:\n      dup2\n      sload\n      dup2\n      mstore\n      swap1\n      0x01\n      add\n      swap1\n      0x20\n      add\n      dup1\n      dup4\n      gt\n      tag_70\n      jumpi\n      dup3\n      swap1\n      sub\n      0x1f\n      and\n      dup3\n      add\n      swap2\n    tag_68:\n      pop\n      pop\n      pop\n      pop\n      pop\n      dup2\n      jump\t// out\n        /* \"#utility.yul\":7:82   */\n    tag_71:\n        /* \"#utility.yul\":40:46   */\n      0x00\n        /* \"#utility.yul\":73:75   */\n      0x40\n        /* \"#utility.yul\":67:76   */\n      mload\n        /* \"#utility.yul\":57:76   */\n      swap1\n      pop\n        /* \"#utility.yul\":7:82   */\n      swap1\n      jump\t// out\n        /* \"#utility.yul\":88:205   */\n    tag_72:\n        /* \"#utility.yul\":197:198   */\n      0x00\n        /* \"#utility.yul\":194:195   */\n      dup1\n        /* \"#utility.yul\":187:199   */\n      revert\n        /* \"#utility.yul\":211:328   */\n    tag_73:\n        /* \"#utility.yul\":320:321   */\n      0x00\n        /* \"#utility.yul\":317:318   */\n      dup1\n        /* \"#utility.yul\":310:322   */\n      revert\n        /* \"#utility.yul\":334:451   */\n    tag_74:\n        /* \"#utility.yul\":443:444   */\n      0x00\n        /* \"#utility.yul\":440:441   */\n      dup1\n        /* \"#utility.yul\":433:445   */\n      revert\n        /* \"#utility.yul\":457:574   */\n    tag_75:\n        /* \"#utility.yul\":566:567   */\n      0x00\n        /* \"#utility.yul\":563:564   */\n      dup1\n        /* \"#utility.yul\":556:568   */\n      revert\n        /* \"#utility.yul\":580:682   */\n    tag_76:\n        /* \"#utility.yul\":621:627   */\n      0x00\n        /* \"#utility.yul\":672:674   */\n      0x1f\n        /* \"#utility.yul\":668:675   */\n      not\n        /* \"#utility.yul\":663:665   */\n      0x1f\n        /* \"#utility.yul\":656:661   */\n      dup4\n        /* \"#utility.yul\":652:666   */\n      add\n        /* \"#utility.yul\":648:676   */\n      and\n        /* \"#utility.yul\":638:676   */\n      swap1\n      pop\n        /* \"#utility.yul\":580:682   */\n      swap2\n      swap1\n      pop\n      jump\t// out\n        /* \"#utility.yul\":688:868   */\n    tag_77:\n        /* \"#utility.yul\":736:813   */\n      0x4e487b7100000000000000000000000000000000000000000000000000000000\n        /* \"#utility.yul\":733:734   */\n      0x00\n        /* \"#utility.yul\":726:814   */\n      mstore\n        /* \"#utility.yul\":833:837   */\n      0x41\n        /* \"#utility.yul\":830:831   */\n      0x04\n        /* \"#utility.yul\":823:838   */\n      mstore\n        /* \"#utility.yul\":857:861   */\n      0x24\n        /* \"#utility.yul\":854:855   */\n      0x00\n        /* \"#utility.yul\":847:862   */\n      revert\n        /* \"#utility.yul\":874:1155   */\n    tag_78:\n        /* \"#utility.yul\":957:984   */\n      tag_116\n        /* \"#utility.yul\":979:983   */\n      dup3\n        /* \"#utility.yul\":957:984   */\n      tag_76\n      jump\t// in\n    tag_116:\n        /* \"#utility.yul\":949:955   */\n      dup2\n        /* \"#utility.yul\":945:985   */\n      add\n        /* \"#utility.yul\":1087:1093   */\n      dup2\n        /* \"#utility.yul\":1075:1085   */\n      dup2\n        /* \"#utility.yul\":1072:1094   */\n      lt\n        /* \"#utility.yul\":1051:1069   */\n      0xffffffffffffffff\n        /* \"#utility.yul\":1039:1049   */\n      dup3\n        /* \"#utility.yul\":1036:1070   */\n      gt\n        /* \"#utility.yul\":1033:1095   */\n      or\n        /* \"#utility.yul\":1030:1118   */\n      iszero\n      tag_117\n      jumpi\n        /* \"#utility.yul\":1098:1116   */\n      tag_118\n      tag_77\n      jump\t// in\n    tag_118:\n        /* \"#utility.yul\":1030:1118   */\n    tag_117:\n        /* \"#utility.yul\":1138:1148   */\n      dup1\n        /* \"#utility.yul\":1134:1136   */\n      0x40\n        /* \"#utility.yul\":1127:1149   */\n      mstore\n        /* \"#utility.yul\":917:1155   */\n      pop\n        /* \"#utility.yul\":874:1155   */\n      pop\n      pop\n      jump\t// out\n        /* \"#utility.yul\":1161:1290   */\n    tag_79:\n        /* \"#utility.yul\":1195:1201   */\n      0x00\n        /* \"#utility.yul\":1222:1242   */\n      tag_120\n      tag_71\n      jump\t// in\n    tag_120:\n        /* \"#utility.yul\":1212:1242   */\n      swap1\n      pop\n        /* \"#utility.yul\":1251:1284   */\n      tag_121\n        /* \"#utility.yul\":1279:1283   */\n      dup3\n        /* \"#utility.yul\":1271:1277   */\n      dup3\n        /* \"#utility.yul\":1251:1284   */\n      tag_78\n      jump\t// in\n    tag_121:\n        /* \"#utility.yul\":1161:1290   */\n      swap2\n      swap1\n      pop\n      jump\t// out\n        /* \"#utility.yul\":1296:1604   */\n    tag_80:\n        /* \"#utility.yul\":1358:1362   */\n      0x00\n        /* \"#utility.yul\":1448:1466   */\n      0xffffffffffffffff\n        /* \"#utility.yul\":1440:1446   */\n      dup3\n        /* \"#utility.yul\":1437:1467   */\n      gt\n        /* \"#utility.yul\":1434:1490   */\n      iszero\n      tag_123\n      jumpi\n        /* \"#utility.yul\":1470:1488   */\n      tag_124\n      tag_77\n      jump\t// in\n    tag_124:\n        /* \"#utility.yul\":1434:1490   */\n    tag_123:\n        /* \"#utility.yul\":1508:1537   */\n      tag_125\n        /* \"#utility.yul\":1530:1536   */\n      dup3\n        /* \"#utility.yul\":1508:1537   */\n      tag_76\n      jump\t// in\n    tag_125:\n        /* \"#utility.yul\":1500:1537   */\n      swap1\n      pop\n        /* \"#utility.yul\":1592:1596   */\n      0x20\n        /* \"#utility.yul\":1586:1590   */\n      dup2\n        /* \"#utility.yul\":1582:1597   */\n      add\n        /* \"#utility.yul\":1574:1597   */\n      swap1\n      pop\n        /* \"#utility.yul\":1296:1604   */\n      swap2\n      swap1\n      pop\n      jump\t// out\n        /* \"#utility.yul\":1610:1756   */\n    tag_81:\n        /* \"#utility.yul\":1707:1713   */\n      dup3\n        /* \"#utility.yul\":1702:1705   */\n      dup2\n        /* \"#utility.yul\":1697:1700   */\n      dup4\n        /* \"#utility.yul\":1684:1714   */\n      calldatacopy\n        /* \"#utility.yul\":1748:1749   */\n      0x00\n        /* \"#utility.yul\":1739:1745   */\n      dup4\n        /* \"#utility.yul\":1734:1737   */\n      dup4\n        /* \"#utility.yul\":1730:1746   */\n      add\n        /* \"#utility.yul\":1723:1750   */\n      mstore\n        /* \"#utility.yul\":1610:1756   */\n      pop\n      pop\n      pop\n      jump\t// out\n        /* \"#utility.yul\":1762:2187   */\n    tag_82:\n        /* \"#utility.yul\":1840:1845   */\n      0x00\n        /* \"#utility.yul\":1865:1931   */\n      tag_128\n        /* \"#utility.yul\":1881:1930   */\n      tag_129\n        /* \"#utility.yul\":1923:1929   */\n      dup5\n        /* \"#utility.yul\":1881:1930   */\n      tag_80\n      jump\t// in\n    tag_129:\n        /* \"#utility.yul\":1865:1931   */\n      tag_79\n      jump\t// in\n    tag_128:\n        /* \"#utility.yul\":1856:1931   */\n      swap1\n      pop\n        /* \"#utility.yul\":1954:1960   */\n      dup3\n        /* \"#utility.yul\":1947:1952   */\n      dup2\n        /* \"#utility.yul\":1940:1961   */\n      mstore\n        /* \"#utility.yul\":1992:1996   */\n      0x20\n        /* \"#utility.yul\":1985:1990   */\n      dup2\n        /* \"#utility.yul\":1981:1997   */\n      add\n        /* \"#utility.yul\":2030:2033   */\n      dup5\n        /* \"#utility.yul\":2021:2027   */\n      dup5\n        /* \"#utility.yul\":2016:2019   */\n      dup5\n        /* \"#utility.yul\":2012:2028   */\n      add\n        /* \"#utility.yul\":2009:2034   */\n      gt\n        /* \"#utility.yul\":2006:2118   */\n      iszero\n      tag_130\n      jumpi\n        /* \"#utility.yul\":2037:2116   */\n      tag_131\n      tag_75\n      jump\t// in\n    tag_131:\n        /* \"#utility.yul\":2006:2118   */\n    tag_130:\n        /* \"#utility.yul\":2127:2181   */\n      tag_132\n        /* \"#utility.yul\":2174:2180   */\n      dup5\n        /* \"#utility.yul\":2169:2172   */\n      dup3\n        /* \"#utility.yul\":2164:2167   */\n      dup6\n        /* \"#utility.yul\":2127:2181   */\n      tag_81\n      jump\t// in\n    tag_132:\n        /* \"#utility.yul\":1846:2187   */\n      pop\n        /* \"#utility.yul\":1762:2187   */\n      swap4\n      swap3\n      pop\n      pop\n      pop\n      jump\t// out\n        /* \"#utility.yul\":2207:2547   */\n    tag_83:\n        /* \"#utility.yul\":2263:2268   */\n      0x00\n        /* \"#utility.yul\":2312:2315   */\n      dup3\n        /* \"#utility.yul\":2305:2309   */\n      0x1f\n        /* \"#utility.yul\":2297:2303   */\n      dup4\n        /* \"#utility.yul\":2293:2310   */\n      add\n        /* \"#utility.yul\":2289:2316   */\n      slt\n        /* \"#utility.yul\":2279:2401   */\n      tag_134\n      jumpi\n        /* \"#utility.yul\":2320:2399   */\n      tag_135\n      tag_74\n      jump\t// in\n    tag_135:\n        /* \"#utility.yul\":2279:2401   */\n    tag_134:\n        /* \"#utility.yul\":2437:2443   */\n      dup2\n        /* \"#utility.yul\":2424:2444   */\n      calldataload\n        /* \"#utility.yul\":2462:2541   */\n      tag_136\n        /* \"#utility.yul\":2537:2540   */\n      dup5\n        /* \"#utility.yul\":2529:2535   */\n      dup3\n        /* \"#utility.yul\":2522:2526   */\n      0x20\n        /* \"#utility.yul\":2514:2520   */\n      dup7\n        /* \"#utility.yul\":2510:2527   */\n      add\n        /* \"#utility.yul\":2462:2541   */\n      tag_82\n      jump\t// in\n    tag_136:\n        /* \"#utility.yul\":2453:2541   */\n      swap2\n      pop\n        /* \"#utility.yul\":2269:2547   */\n      pop\n        /* \"#utility.yul\":2207:2547   */\n      swap3\n      swap2\n      pop\n      pop\n      jump\t// out\n        /* \"#utility.yul\":2553:3062   */\n    tag_18:\n        /* \"#utility.yul\":2622:2628   */\n      0x00\n        /* \"#utility.yul\":2671:2673   */\n      0x20\n        /* \"#utility.yul\":2659:2668   */\n      dup3\n        /* \"#utility.yul\":2650:2657   */\n      dup5\n        /* \"#utility.yul\":2646:2669   */\n      sub\n        /* \"#utility.yul\":2642:2674   */\n      slt\n        /* \"#utility.yul\":2639:2758   */\n      iszero\n      tag_138\n      jumpi\n        /* \"#utility.yul\":2677:2756   */\n      tag_139\n      tag_72\n      jump\t// in\n    tag_139:\n        /* \"#utility.yul\":2639:2758   */\n    tag_138:\n        /* \"#utility.yul\":2825:2826   */\n      0x00\n        /* \"#utility.yul\":2814:2823   */\n      dup3\n        /* \"#utility.yul\":2810:2827   */\n      add\n        /* \"#utility.yul\":2797:2828   */\n      calldataload\n        /* \"#utility.yul\":2855:2873   */\n      0xffffffffffffffff\n        /* \"#utility.yul\":2847:2853   */\n      dup2\n        /* \"#utility.yul\":2844:2874   */\n      gt\n        /* \"#utility.yul\":2841:2958   */\n      iszero\n      tag_140\n      jumpi\n        /* \"#utility.yul\":2877:2956   */\n      tag_141\n      tag_73\n      jump\t// in\n    tag_141:\n        /* \"#utility.yul\":2841:2958   */\n    tag_140:\n        /* \"#utility.yul\":2982:3045   */\n      tag_142\n        /* \"#utility.yul\":3037:3044   */\n      dup5\n        /* \"#utility.yul\":3028:3034   */\n      dup3\n        /* \"#utility.yul\":3017:3026   */\n      dup6\n        /* \"#utility.yul\":3013:3035   */\n      add\n        /* \"#utility.yul\":2982:3045   */\n      tag_83\n      jump\t// in\n    tag_142:\n        /* \"#utility.yul\":2972:3045   */\n      swap2\n      pop\n        /* \"#utility.yul\":2768:3055   */\n      pop\n        /* \"#utility.yul\":2553:3062   */\n      swap3\n      swap2\n      pop\n      pop\n      jump\t// out\n        /* \"#utility.yul\":3068:3145   */\n    tag_84:\n        /* \"#utility.yul\":3105:3112   */\n      0x00\n        /* \"#utility.yul\":3134:3139   */\n      dup2\n        /* \"#utility.yul\":3123:3139   */\n      swap1\n      pop\n        /* \"#utility.yul\":3068:3145   */\n      swap2\n      swap1\n      pop\n      jump\t// out\n        /* \"#utility.yul\":3151:3273   */\n    tag_85:\n        /* \"#utility.yul\":3224:3248   */\n      tag_145\n        /* \"#utility.yul\":3242:3247   */\n      dup2\n        /* \"#utility.yul\":3224:3248   */\n      tag_84\n      jump\t// in\n    tag_145:\n        /* \"#utility.yul\":3217:3222   */\n      dup2\n        /* \"#utility.yul\":3214:3249   */\n      eq\n        /* \"#utility.yul\":3204:3267   */\n      tag_146\n      jumpi\n        /* \"#utility.yul\":3263:3264   */\n      0x00\n        /* \"#utility.yul\":3260:3261   */\n      dup1\n        /* \"#utility.yul\":3253:3265   */\n      revert\n        /* \"#utility.yul\":3204:3267   */\n    tag_146:\n        /* \"#utility.yul\":3151:3273   */\n      pop\n      jump\t// out\n        /* \"#utility.yul\":3279:3418   */\n    tag_86:\n        /* \"#utility.yul\":3325:3330   */\n      0x00\n        /* \"#utility.yul\":3363:3369   */\n      dup2\n        /* \"#utility.yul\":3350:3370   */\n      calldataload\n        /* \"#utility.yul\":3341:3370   */\n      swap1\n      pop\n        /* \"#utility.yul\":3379:3412   */\n      tag_148\n        /* \"#utility.yul\":3406:3411   */\n      dup2\n        /* \"#utility.yul\":3379:3412   */\n      tag_85\n      jump\t// in\n    tag_148:\n        /* \"#utility.yul\":3279:3418   */\n      swap3\n      swap2\n      pop\n      pop\n      jump\t// out\n        /* \"#utility.yul\":3424:3753   */\n    tag_24:\n        /* \"#utility.yul\":3483:3489   */\n      0x00\n        /* \"#utility.yul\":3532:3534   */\n      0x20\n        /* \"#utility.yul\":3520:3529   */\n      dup3\n        /* \"#utility.yul\":3511:3518   */\n      dup5\n        /* \"#utility.yul\":3507:3530   */\n      sub\n        /* \"#utility.yul\":3503:3535   */\n      slt\n        /* \"#utility.yul\":3500:3619   */\n      iszero\n      tag_150\n      jumpi\n        /* \"#utility.yul\":3538:3617   */\n      tag_151\n      tag_72\n      jump\t// in\n    tag_151:\n        /* \"#utility.yul\":3500:3619   */\n    tag_150:\n        /* \"#utility.yul\":3658:3659   */\n      0x00\n        /* \"#utility.yul\":3683:3736   */\n      tag_152\n        /* \"#utility.yul\":3728:3735   */\n      dup5\n        /* \"#utility.yul\":3719:3725   */\n      dup3\n        /* \"#utility.yul\":3708:3717   */\n      dup6\n        /* \"#utility.yul\":3704:3726   */\n      add\n        /* \"#utility.yul\":3683:3736   */\n      tag_86\n      jump\t// in\n    tag_152:\n        /* \"#utility.yul\":3673:3736   */\n      swap2\n      pop\n        /* \"#utility.yul\":3629:3746   */\n      pop\n        /* \"#utility.yul\":3424:3753   */\n      swap3\n      swap2\n      pop\n      pop\n      jump\t// out\n        /* \"#utility.yul\":3759:3858   */\n    tag_87:\n        /* \"#utility.yul\":3811:3817   */\n      0x00\n        /* \"#utility.yul\":3845:3850   */\n      dup2\n        /* \"#utility.yul\":3839:3851   */\n      mload\n        /* \"#utility.yul\":3829:3851   */\n      swap1\n      pop\n        /* \"#utility.yul\":3759:3858   */\n      swap2\n      swap1\n      pop\n      jump\t// out\n        /* \"#utility.yul\":3864:4033   */\n    tag_88:\n        /* \"#utility.yul\":3948:3959   */\n      0x00\n        /* \"#utility.yul\":3982:3988   */\n      dup3\n        /* \"#utility.yul\":3977:3980   */\n      dup3\n        /* \"#utility.yul\":3970:3989   */\n      mstore\n        /* \"#utility.yul\":4022:4026   */\n      0x20\n        /* \"#utility.yul\":4017:4020   */\n      dup3\n        /* \"#utility.yul\":4013:4027   */\n      add\n        /* \"#utility.yul\":3998:4027   */\n      swap1\n      pop\n        /* \"#utility.yul\":3864:4033   */\n      swap3\n      swap2\n      pop\n      pop\n      jump\t// out\n        /* \"#utility.yul\":4039:4285   */\n    tag_89:\n        /* \"#utility.yul\":4120:4121   */\n      0x00\n        /* \"#utility.yul\":4130:4243   */\n    tag_156:\n        /* \"#utility.yul\":4144:4150   */\n      dup4\n        /* \"#utility.yul\":4141:4142   */\n      dup2\n        /* \"#utility.yul\":4138:4151   */\n      lt\n        /* \"#utility.yul\":4130:4243   */\n      iszero\n      tag_158\n      jumpi\n        /* \"#utility.yul\":4229:4230   */\n      dup1\n        /* \"#utility.yul\":4224:4227   */\n      dup3\n        /* \"#utility.yul\":4220:4231   */\n      add\n        /* \"#utility.yul\":4214:4232   */\n      mload\n        /* \"#utility.yul\":4210:4211   */\n      dup2\n        /* \"#utility.yul\":4205:4208   */\n      dup5\n        /* \"#utility.yul\":4201:4212   */\n      add\n        /* \"#utility.yul\":4194:4233   */\n      mstore\n        /* \"#utility.yul\":4166:4168   */\n      0x20\n        /* \"#utility.yul\":4163:4164   */\n      dup2\n        /* \"#utility.yul\":4159:4169   */\n      add\n        /* \"#utility.yul\":4154:4169   */\n      swap1\n      pop\n        /* \"#utility.yul\":4130:4243   */\n      jump(tag_156)\n    tag_158:\n        /* \"#utility.yul\":4277:4278   */\n      0x00\n        /* \"#utility.yul\":4268:4274   */\n      dup5\n        /* \"#utility.yul\":4263:4266   */\n      dup5\n        /* \"#utility.yul\":4259:4275   */\n      add\n        /* \"#utility.yul\":4252:4279   */\n      mstore\n        /* \"#utility.yul\":4101:4285   */\n      pop\n        /* \"#utility.yul\":4039:4285   */\n      pop\n      pop\n      pop\n      jump\t// out\n        /* \"#utility.yul\":4291:4668   */\n    tag_90:\n        /* \"#utility.yul\":4379:4382   */\n      0x00\n        /* \"#utility.yul\":4407:4446   */\n      tag_160\n        /* \"#utility.yul\":4440:4445   */\n      dup3\n        /* \"#utility.yul\":4407:4446   */\n      tag_87\n      jump\t// in\n    tag_160:\n        /* \"#utility.yul\":4462:4533   */\n      tag_161\n        /* \"#utility.yul\":4526:4532   */\n      dup2\n        /* \"#utility.yul\":4521:4524   */\n      dup6\n        /* \"#utility.yul\":4462:4533   */\n      tag_88\n      jump\t// in\n    tag_161:\n        /* \"#utility.yul\":4455:4533   */\n      swap4\n      pop\n        /* \"#utility.yul\":4542:4607   */\n      tag_162\n        /* \"#utility.yul\":4600:4606   */\n      dup2\n        /* \"#utility.yul\":4595:4598   */\n      dup6\n        /* \"#utility.yul\":4588:4592   */\n      0x20\n        /* \"#utility.yul\":4581:4586   */\n      dup7\n        /* \"#utility.yul\":4577:4593   */\n      add\n        /* \"#utility.yul\":4542:4607   */\n      tag_89\n      jump\t// in\n    tag_162:\n        /* \"#utility.yul\":4632:4661   */\n      tag_163\n        /* \"#utility.yul\":4654:4660   */\n      dup2\n        /* \"#utility.yul\":4632:4661   */\n      tag_76\n      jump\t// in\n    tag_163:\n        /* \"#utility.yul\":4627:4630   */\n      dup5\n        /* \"#utility.yul\":4623:4662   */\n      add\n        /* \"#utility.yul\":4616:4662   */\n      swap2\n      pop\n        /* \"#utility.yul\":4383:4668   */\n      pop\n        /* \"#utility.yul\":4291:4668   */\n      swap3\n      swap2\n      pop\n      pop\n      jump\t// out\n        /* \"#utility.yul\":4674:4987   */\n    tag_27:\n        /* \"#utility.yul\":4787:4791   */\n      0x00\n        /* \"#utility.yul\":4825:4827   */\n      0x20\n        /* \"#utility.yul\":4814:4823   */\n      dup3\n        /* \"#utility.yul\":4810:4828   */\n      add\n        /* \"#utility.yul\":4802:4828   */\n      swap1\n      pop\n        /* \"#utility.yul\":4874:4883   */\n      dup2\n        /* \"#utility.yul\":4868:4872   */\n      dup2\n        /* \"#utility.yul\":4864:4884   */\n      sub\n        /* \"#utility.yul\":4860:4861   */\n      0x00\n        /* \"#utility.yul\":4849:4858   */\n      dup4\n        /* \"#utility.yul\":4845:4862   */\n      add\n        /* \"#utility.yul\":4838:4885   */\n      mstore\n        /* \"#utility.yul\":4902:4980   */\n      tag_165\n        /* \"#utility.yul\":4975:4979   */\n      dup2\n        /* \"#utility.yul\":4966:4972   */\n      dup5\n        /* \"#utility.yul\":4902:4980   */\n      tag_90\n      jump\t// in\n    tag_165:\n        /* \"#utility.yul\":4894:4980   */\n      swap1\n      pop\n        /* \"#utility.yul\":4674:4987   */\n      swap3\n      swap2\n      pop\n      pop\n      jump\t// out\n        /* \"#utility.yul\":4993:5173   */\n    tag_91:\n        /* \"#utility.yul\":5041:5118   */\n      0x4e487b7100000000000000000000000000000000000000000000000000000000\n        /* \"#utility.yul\":5038:5039   */\n      0x00\n        /* \"#utility.yul\":5031:5119   */\n      mstore\n        /* \"#utility.yul\":5138:5142   */\n      0x22\n        /* \"#utility.yul\":5135:5136   */\n      0x04\n        /* \"#utility.yul\":5128:5143   */\n      mstore\n        /* \"#utility.yul\":5162:5166   */\n      0x24\n        /* \"#utility.yul\":5159:5160   */\n      0x00\n        /* \"#utility.yul\":5152:5167   */\n      revert\n        /* \"#utility.yul\":5179:5499   */\n    tag_48:\n        /* \"#utility.yul\":5223:5229   */\n      0x00\n        /* \"#utility.yul\":5260:5261   */\n      0x02\n        /* \"#utility.yul\":5254:5258   */\n      dup3\n        /* \"#utility.yul\":5250:5262   */\n      div\n        /* \"#utility.yul\":5240:5262   */\n      swap1\n      pop\n        /* \"#utility.yul\":5307:5308   */\n      0x01\n        /* \"#utility.yul\":5301:5305   */\n      dup3\n        /* \"#utility.yul\":5297:5309   */\n      and\n        /* \"#utility.yul\":5328:5346   */\n      dup1\n        /* \"#utility.yul\":5318:5399   */\n      tag_168\n      jumpi\n        /* \"#utility.yul\":5384:5388   */\n      0x7f\n        /* \"#utility.yul\":5376:5382   */\n      dup3\n        /* \"#utility.yul\":5372:5389   */\n      and\n        /* \"#utility.yul\":5362:5389   */\n      swap2\n      pop\n        /* \"#utility.yul\":5318:5399   */\n    tag_168:\n        /* \"#utility.yul\":5446:5448   */\n      0x20\n        /* \"#utility.yul\":5438:5444   */\n      dup3\n        /* \"#utility.yul\":5435:5449   */\n      lt\n        /* \"#utility.yul\":5415:5433   */\n      dup2\n        /* \"#utility.yul\":5412:5450   */\n      sub\n        /* \"#utility.yul\":5409:5493   */\n      tag_169\n      jumpi\n        /* \"#utility.yul\":5465:5483   */\n      tag_170\n      tag_91\n      jump\t// in\n    tag_170:\n        /* \"#utility.yul\":5409:5493   */\n    tag_169:\n        /* \"#utility.yul\":5230:5499   */\n      pop\n        /* \"#utility.yul\":5179:5499   */\n      swap2\n      swap1\n      pop\n      jump\t// out\n        /* \"#utility.yul\":5505:5646   */\n    tag_92:\n        /* \"#utility.yul\":5554:5558   */\n      0x00\n        /* \"#utility.yul\":5577:5580   */\n      dup2\n        /* \"#utility.yul\":5569:5580   */\n      swap1\n      pop\n        /* \"#utility.yul\":5600:5603   */\n      dup2\n        /* \"#utility.yul\":5597:5598   */\n      0x00\n        /* \"#utility.yul\":5590:5604   */\n      mstore\n        /* \"#utility.yul\":5634:5638   */\n      0x20\n        /* \"#utility.yul\":5631:5632   */\n      0x00\n        /* \"#utility.yul\":5621:5639   */\n      keccak256\n        /* \"#utility.yul\":5613:5639   */\n      swap1\n      pop\n        /* \"#utility.yul\":5505:5646   */\n      swap2\n      swap1\n      pop\n      jump\t// out\n        /* \"#utility.yul\":5652:5745   */\n    tag_93:\n        /* \"#utility.yul\":5689:5695   */\n      0x00\n        /* \"#utility.yul\":5736:5738   */\n      0x20\n        /* \"#utility.yul\":5731:5733   */\n      0x1f\n        /* \"#utility.yul\":5724:5729   */\n      dup4\n        /* \"#utility.yul\":5720:5734   */\n      add\n        /* \"#utility.yul\":5716:5739   */\n      div\n        /* \"#utility.yul\":5706:5739   */\n      swap1\n      pop\n        /* \"#utility.yul\":5652:5745   */\n      swap2\n      swap1\n      pop\n      jump\t// out\n        /* \"#utility.yul\":5751:5858   */\n    tag_94:\n        /* \"#utility.yul\":5795:5803   */\n      0x00\n        /* \"#utility.yul\":5845:5850   */\n      dup3\n        /* \"#utility.yul\":5839:5843   */\n      dup3\n        /* \"#utility.yul\":5835:5851   */\n      shl\n        /* \"#utility.yul\":5814:5851   */\n      swap1\n      pop\n        /* \"#utility.yul\":5751:5858   */\n      swap3\n      swap2\n      pop\n      pop\n      jump\t// out\n        /* \"#utility.yul\":5864:6257   */\n    tag_95:\n        /* \"#utility.yul\":5933:5939   */\n      0x00\n        /* \"#utility.yul\":5983:5984   */\n      0x08\n        /* \"#utility.yul\":5971:5981   */\n      dup4\n        /* \"#utility.yul\":5967:5985   */\n      mul\n        /* \"#utility.yul\":6006:6103   */\n      tag_175\n        /* \"#utility.yul\":6036:6102   */\n      0xffffffffffffffffffffffffffffffffffffffffffffffffffffffffffffffff\n        /* \"#utility.yul\":6025:6034   */\n      dup3\n        /* \"#utility.yul\":6006:6103   */\n      tag_94\n      jump\t// in\n    tag_175:\n        /* \"#utility.yul\":6124:6163   */\n      tag_176\n        /* \"#utility.yul\":6154:6162   */\n      dup7\n        /* \"#utility.yul\":6143:6152   */\n      dup4\n        /* \"#utility.yul\":6124:6163   */\n      tag_94\n      jump\t// in\n    tag_176:\n        /* \"#utility.yul\":6112:6163   */\n      swap6\n      pop\n        /* \"#utility.yul\":6196:6200   */\n      dup1\n        /* \"#utility.yul\":6192:6201   */\n      not\n        /* \"#utility.yul\":6185:6190   */\n      dup5\n        /* \"#utility.yul\":6181:6202   */\n      and\n        /* \"#utility.yul\":6172:6202   */\n      swap4\n      pop\n        /* \"#utility.yul\":6245:6249   */\n      dup1\n        /* \"#utility.yul\":6235:6243   */\n      dup7\n        /* \"#utility.yul\":6231:6250   */\n      and\n        /* \"#utility.yul\":6224:6229   */\n      dup5\n        /* \"#utility.yul\":6221:6251   */\n      or\n        /* \"#utility.yul\":6211:6251   */\n      swap3\n      pop\n        /* \"#utility.yul\":5940:6257   */\n      pop\n      pop\n        /* \"#utility.yul\":5864:6257   */\n      swap4\n      swap3\n      pop\n      pop\n      pop\n      jump\t// out\n        /* \"#utility.yul\":6263:6323   */\n    tag_96:\n        /* \"#utility.yul\":6291:6294   */\n      0x00\n        /* \"#utility.yul\":6312:6317   */\n      dup2\n        /* \"#utility.yul\":6305:6317   */\n      swap1\n      pop\n        /* \"#utility.yul\":6263:6323   */\n      swap2\n      swap1\n      pop\n      jump\t// out\n        /* \"#utility.yul\":6329:6471   */\n    tag_97:\n        /* \"#utility.yul\":6379:6388   */\n      0x00\n        /* \"#utility.yul\":6412:6465   */\n      tag_179\n        /* \"#utility.yul\":6430:6464   */\n      tag_180\n        /* \"#utility.yul\":6439:6463   */\n      tag_181\n        /* \"#utility.yul\":6457:6462   */\n      dup5\n        /* \"#utility.yul\":6439:6463   */\n      tag_84\n      jump\t// in\n    tag_181:\n        /* \"#utility.yul\":6430:6464   */\n      tag_96\n      jump\t// in\n    tag_180:\n        /* \"#utility.yul\":6412:6465   */\n      tag_84\n      jump\t// in\n    tag_179:\n        /* \"#utility.yul\":6399:6465   */\n      swap1\n      pop\n        /* \"#utility.yul\":6329:6471   */\n      swap2\n      swap1\n      pop\n      jump\t// out\n        /* \"#utility.yul\":6477:6552   */\n    tag_98:\n        /* \"#utility.yul\":6520:6523   */\n      0x00\n        /* \"#utility.yul\":6541:6546   */\n      dup2\n        /* \"#utility.yul\":6534:6546   */\n      swap1\n      pop\n        /* \"#utility.yul\":6477:6552   */\n      swap2\n      swap1\n      pop\n      jump\t// out\n        /* \"#utility.yul\":6558:6827   */\n    tag_99:\n        /* \"#utility.yul\":6668:6707   */\n      tag_184\n        /* \"#utility.yul\":6699:6706   */\n      dup4\n        /* \"#utility.yul\":6668:6707   */\n      tag_97\n      jump\t// in\n    tag_184:\n        /* \"#utility.yul\":6729:6820   */\n      tag_185\n        /* \"#utility.yul\":6778:6819   */\n      tag_186\n        /* \"#utility.yul\":6802:6818   */\n      dup3\n        /* \"#utility.yul\":6778:6819   */\n      tag_98\n      jump\t// in\n    tag_186:\n        /* \"#utility.yul\":6770:6776   */\n      dup5\n        /* \"#utility.yul\":6763:6767   */\n      dup5\n        /* \"#utility.yul\":6757:6768   */\n      sload\n        /* \"#utility.yul\":6729:6820   */\n      tag_95\n      jump\t// in\n    tag_185:\n        /* \"#utility.yul\":6723:6727   */\n      dup3\n        /* \"#utility.yul\":6716:6821   */\n      sstore\n        /* \"#utility.yul\":6634:6827   */\n      pop\n        /* \"#utility.yul\":6558:6827   */\n      pop\n      pop\n      pop\n      jump\t// out\n        /* \"#utility.yul\":6833:6906   */\n    tag_100:\n        /* \"#utility.yul\":6878:6881   */\n      0x00\n        /* \"#utility.yul\":6833:6906   */\n      swap1\n      jump\t// out\n        /* \"#utility.yul\":6912:7101   */\n    tag_101:\n        /* \"#utility.yul\":6989:7021   */\n      tag_189\n      tag_100\n      jump\t// in\n    tag_189:\n        /* \"#utility.yul\":7030:7095   */\n      tag_190\n        /* \"#utility.yul\":7088:7094   */\n      dup2\n        /* \"#utility.yul\":7080:7086   */\n      dup5\n        /* \"#utility.yul\":7074:7078   */\n      dup5\n        /* \"#utility.yul\":7030:7095   */\n      tag_99\n      jump\t// in\n    tag_190:\n        /* \"#utility.yul\":6965:7101   */\n      pop\n        /* \"#utility.yul\":6912:7101   */\n      pop\n      pop\n      jump\t// out\n        /* \"#utility.yul\":7107:7293   */\n    tag_102:\n        /* \"#utility.yul\":7167:7287   */\n    tag_192:\n        /* \"#utility.yul\":7184:7187   */\n      dup2\n        /* \"#utility.yul\":7177:7182   */\n      dup2\n        /* \"#utility.yul\":7174:7188   */\n      lt\n        /* \"#utility.yul\":7167:7287   */\n      iszero\n      tag_194\n      jumpi\n        /* \"#utility.yul\":7238:7277   */\n      tag_195\n        /* \"#utility.yul\":7275:7276   */\n      0x00\n        /* \"#utility.yul\":7268:7273   */\n      dup3\n        /* \"#utility.yul\":7238:7277   */\n      tag_101\n      jump\t// in\n    tag_195:\n        /* \"#utility.yul\":7211:7212   */\n      0x01\n        /* \"#utility.yul\":7204:7209   */\n      dup2\n        /* \"#utility.yul\":7200:7213   */\n      add\n        /* \"#utility.yul\":7191:7213   */\n      swap1\n      pop\n        /* \"#utility.yul\":7167:7287   */\n      jump(tag_192)\n    tag_194:\n        /* \"#utility.yul\":7107:7293   */\n      pop\n      pop\n      jump\t// out\n        /* \"#utility.yul\":7299:7842   */\n    tag_103:\n        /* \"#utility.yul\":7400:7402   */\n      0x1f\n        /* \"#utility.yul\":7395:7398   */\n      dup3\n        /* \"#utility.yul\":7392:7403   */\n      gt\n        /* \"#utility.yul\":7389:7835   */\n      iszero\n      tag_197\n      jumpi\n        /* \"#utility.yul\":7434:7472   */\n      tag_198\n        /* \"#utility.yul\":7466:7471   */\n      dup2\n        /* \"#utility.yul\":7434:7472   */\n      tag_92\n      jump\t// in\n    tag_198:\n        /* \"#utility.yul\":7518:7547   */\n      tag_199\n        /* \"#utility.yul\":7536:7546   */\n      dup5\n        /* \"#utility.yul\":7518:7547   */\n      tag_93\n      jump\t// in\n    tag_199:\n        /* \"#utility.yul\":7508:7516   */\n      dup2\n        /* \"#utility.yul\":7504:7548   */\n      add\n        /* \"#utility.yul\":7701:7703   */\n      0x20\n        /* \"#utility.yul\":7689:7699   */\n      dup6\n        /* \"#utility.yul\":7686:7704   */\n      lt\n        /* \"#utility.yul\":7683:7732   */\n      iszero\n      tag_200\n      jumpi\n        /* \"#utility.yul\":7722:7730   */\n      dup2\n        /* \"#utility.yul\":7707:7730   */\n      swap1\n      pop\n        /* \"#utility.yul\":7683:7732   */\n    tag_200:\n        /* \"#utility.yul\":7745:7825   */\n      tag_201\n        /* \"#utility.yul\":7801:7823   */\n      tag_202\n        /* \"#utility.yul\":7819:7822   */\n      dup6\n        /* \"#utility.yul\":7801:7823   */\n      tag_93\n      jump\t// in\n    tag_202:\n        /* \"#utility.yul\":7791:7799   */\n      dup4\n        /* \"#utility.yul\":7787:7824   */\n      add\n        /* \"#utility.yul\":7774:7785   */\n      dup3\n        /* \"#utility.yul\":7745:7825   */\n      tag_102\n      jump\t// in\n    tag_201:\n        /* \"#utility.yul\":7404:7835   */\n      pop\n      pop\n        /* \"#utility.yul\":7389:7835   */\n    tag_197:\n        /* \"#utility.yul\":7299:7842   */\n      pop\n      pop\n      pop\n      jump\t// out\n        /* \"#utility.yul\":7848:7965   */\n    tag_104:\n        /* \"#utility.yul\":7902:7910   */\n      0x00\n        /* \"#utility.yul\":7952:7957   */\n      dup3\n        /* \"#utility.yul\":7946:7950   */\n      dup3\n        /* \"#utility.yul\":7942:7958   */\n      shr\n        /* \"#utility.yul\":7921:7958   */\n      swap1\n      pop\n        /* \"#utility.yul\":7848:7965   */\n      swap3\n      swap2\n      pop\n      pop\n      jump\t// out\n        /* \"#utility.yul\":7971:8140   */\n    tag_105:\n        /* \"#utility.yul\":8015:8021   */\n      0x00\n        /* \"#utility.yul\":8048:8099   */\n      tag_205\n        /* \"#utility.yul\":8096:8097   */\n      0x00\n        /* \"#utility.yul\":8092:8098   */\n      not\n        /* \"#utility.yul\":8084:8089   */\n      dup5\n        /* \"#utility.yul\":8081:8082   */\n      0x08\n        /* \"#utility.yul\":8077:8090   */\n      mul\n        /* \"#utility.yul\":8048:8099   */\n      tag_104\n      jump\t// in\n    tag_205:\n        /* \"#utility.yul\":8044:8100   */\n      not\n        /* \"#utility.yul\":8129:8133   */\n      dup1\n        /* \"#utility.yul\":8123:8127   */\n      dup4\n        /* \"#utility.yul\":8119:8134   */\n      and\n        /* \"#utility.yul\":8109:8134   */\n      swap2\n      pop\n        /* \"#utility.yul\":8022:8140   */\n      pop\n        /* \"#utility.yul\":7971:8140   */\n      swap3\n      swap2\n      pop\n      pop\n      jump\t// out\n        /* \"#utility.yul\":8145:8440   */\n    tag_106:\n        /* \"#utility.yul\":8221:8225   */\n      0x00\n        /* \"#utility.yul\":8367:8396   */\n      tag_207\n        /* \"#utility.yul\":8392:8395   */\n      dup4\n        /* \"#utility.yul\":8386:8390   */\n      dup4\n        /* \"#utility.yul\":8367:8396   */\n      tag_105\n      jump\t// in\n    tag_207:\n        /* \"#utility.yul\":8359:8396   */\n      swap2\n      pop\n        /* \"#utility.yul\":8429:8432   */\n      dup3\n        /* \"#utility.yul\":8426:8427   */\n      0x02\n        /* \"#utility.yul\":8422:8433   */\n      mul\n        /* \"#utility.yul\":8416:8420   */\n      dup3\n        /* \"#utility.yul\":8413:8434   */\n      or\n        /* \"#utility.yul\":8405:8434   */\n      swap1\n      pop\n        /* \"#utility.yul\":8145:8440   */\n      swap3\n      swap2\n      pop\n      pop\n      jump\t// out\n        /* \"#utility.yul\":8445:9840   */\n    tag_43:\n        /* \"#utility.yul\":8562:8599   */\n      tag_209\n        /* \"#utility.yul\":8595:8598   */\n      dup3\n        /* \"#utility.yul\":8562:8599   */\n      tag_87\n      jump\t// in\n    tag_209:\n        /* \"#utility.yul\":8664:8682   */\n      0xffffffffffffffff\n        /* \"#utility.yul\":8656:8662   */\n      dup2\n        /* \"#utility.yul\":8653:8683   */\n      gt\n        /* \"#utility.yul\":8650:8706   */\n      iszero\n      tag_210\n      jumpi\n        /* \"#utility.yul\":8686:8704   */\n      tag_211\n      tag_77\n      jump\t// in\n    tag_211:\n        /* \"#utility.yul\":8650:8706   */\n    tag_210:\n        /* \"#utility.yul\":8730:8768   */\n      tag_212\n        /* \"#utility.yul\":8762:8766   */\n      dup3\n        /* \"#utility.yul\":8756:8767   */\n      sload\n        /* \"#utility.yul\":8730:8768   */\n      tag_48\n      jump\t// in\n    tag_212:\n        /* \"#utility.yul\":8815:8882   */\n      tag_213\n        /* \"#utility.yul\":8875:8881   */\n      dup3\n        /* \"#utility.yul\":8867:8873   */\n      dup3\n        /* \"#utility.yul\":8861:8865   */\n      dup6\n        /* \"#utility.yul\":8815:8882   */\n      tag_103\n      jump\t// in\n    tag_213:\n        /* \"#utility.yul\":8909:8910   */\n      0x00\n        /* \"#utility.yul\":8933:8937   */\n      0x20\n        /* \"#utility.yul\":8920:8937   */\n      swap1\n      pop\n        /* \"#utility.yul\":8965:8967   */\n      0x1f\n        /* \"#utility.yul\":8957:8963   */\n      dup4\n        /* \"#utility.yul\":8954:8968   */\n      gt\n        /* \"#utility.yul\":8982:8983   */\n      0x01\n        /* \"#utility.yul\":8977:9595   */\n      dup2\n      eq\n      tag_215\n      jumpi\n        /* \"#utility.yul\":9639:9640   */\n      0x00\n        /* \"#utility.yul\":9656:9662   */\n      dup5\n        /* \"#utility.yul\":9653:9730   */\n      iszero\n      tag_216\n      jumpi\n        /* \"#utility.yul\":9705:9714   */\n      dup3\n        /* \"#utility.yul\":9700:9703   */\n      dup8\n        /* \"#utility.yul\":9696:9715   */\n      add\n        /* \"#utility.yul\":9690:9716   */\n      mload\n        /* \"#utility.yul\":9681:9716   */\n      swap1\n      pop\n        /* \"#utility.yul\":9653:9730   */\n    tag_216:\n        /* \"#utility.yul\":9756:9823   */\n      tag_217\n        /* \"#utility.yul\":9816:9822   */\n      dup6\n        /* \"#utility.yul\":9809:9814   */\n      dup3\n        /* \"#utility.yul\":9756:9823   */\n      tag_106\n      jump\t// in\n    tag_217:\n        /* \"#utility.yul\":9750:9754   */\n      dup7\n        /* \"#utility.yul\":9743:9824   */\n      sstore\n        /* \"#utility.yul\":9612:9834   */\n      pop\n        /* \"#utility.yul\":8947:9834   */\n      jump(tag_214)\n        /* \"#utility.yul\":8977:9595   */\n    tag_215:\n        /* \"#utility.yul\":9029:9033   */\n      0x1f\n        /* \"#utility.yul\":9025:9034   */\n      not\n        /* \"#utility.yul\":9017:9023   */\n      dup5\n        /* \"#utility.yul\":9013:9035   */\n      and\n        /* \"#utility.yul\":9063:9100   */\n      tag_218\n        /* \"#utility.yul\":9095:9099   */\n      dup7\n        /* \"#utility.yul\":9063:9100   */\n      tag_92\n      jump\t// in\n    tag_218:\n        /* \"#utility.yul\":9122:9123   */\n      0x00\n        /* \"#utility.yul\":9136:9344   */\n    tag_219:\n        /* \"#utility.yul\":9150:9157   */\n      dup3\n        /* \"#utility.yul\":9147:9148   */\n      dup2\n        /* \"#utility.yul\":9144:9158   */\n      lt\n        /* \"#utility.yul\":9136:9344   */\n      iszero\n      tag_221\n      jumpi\n        /* \"#utility.yul\":9229:9238   */\n      dup5\n        /* \"#utility.yul\":9224:9227   */\n      dup10\n        /* \"#utility.yul\":9220:9239   */\n      add\n        /* \"#utility.yul\":9214:9240   */\n      mload\n        /* \"#utility.yul\":9206:9212   */\n      dup3\n        /* \"#utility.yul\":9199:9241   */\n      sstore\n        /* \"#utility.yul\":9280:9281   */\n      0x01\n        /* \"#utility.yul\":9272:9278   */\n      dup3\n        /* \"#utility.yul\":9268:9282   */\n      add\n        /* \"#utility.yul\":9258:9282   */\n      swap2\n      pop\n        /* \"#utility.yul\":9327:9329   */\n      0x20\n        /* \"#utility.yul\":9316:9325   */\n      dup6\n        /* \"#utility.yul\":9312:9330   */\n      add\n        /* \"#utility.yul\":9299:9330   */\n      swap5\n      pop\n        /* \"#utility.yul\":9173:9177   */\n      0x20\n        /* \"#utility.yul\":9170:9171   */\n      dup2\n        /* \"#utility.yul\":9166:9178   */\n      add\n        /* \"#utility.yul\":9161:9178   */\n      swap1\n      pop\n        /* \"#utility.yul\":9136:9344   */\n      jump(tag_219)\n    tag_221:\n        /* \"#utility.yul\":9372:9378   */\n      dup7\n        /* \"#utility.yul\":9363:9370   */\n      dup4\n        /* \"#utility.yul\":9360:9379   */\n      lt\n        /* \"#utility.yul\":9357:9536   */\n      iszero\n      tag_222\n      jumpi\n        /* \"#utility.yul\":9430:9439   */\n      dup5\n        /* \"#utility.yul\":9425:9428   */\n      dup10\n        /* \"#utility.yul\":9421:9440   */\n      add\n        /* \"#utility.yul\":9415:9441   */\n      mload\n        /* \"#utility.yul\":9473:9521   */\n      tag_223\n        /* \"#utility.yul\":9515:9519   */\n      0x1f\n        /* \"#utility.yul\":9507:9513   */\n      dup10\n        /* \"#utility.yul\":9503:9520   */\n      and\n        /* \"#utility.yul\":9492:9501   */\n      dup3\n        /* \"#utility.yul\":9473:9521   */\n      tag_105\n      jump\t// in\n    tag_223:\n        /* \"#utility.yul\":9465:9471   */\n      dup4\n        /* \"#utility.yul\":9458:9522   */\n      sstore\n        /* \"#utility.yul\":9380:9536   */\n      pop\n        /* \"#utility.yul\":9357:9536   */\n    tag_222:\n        /* \"#utility.yul\":9582:9583   */\n      0x01\n        /* \"#utility.yul\":9578:9579   */\n      0x02\n        /* \"#utility.yul\":9570:9576   */\n      dup9\n        /* \"#utility.yul\":9566:9580   */\n      mul\n        /* \"#utility.yul\":9562:9584   */\n      add\n        /* \"#utility.yul\":9556:9560   */\n      dup9\n        /* \"#utility.yul\":9549:9585   */\n      sstore\n        /* \"#utility.yul\":8984:9595   */\n      pop\n      pop\n      pop\n        /* \"#utility.yul\":8947:9834   */\n    tag_214:\n      pop\n        /* \"#utility.yul\":8537:9840   */\n      pop\n      pop\n      pop\n        /* \"#utility.yul\":8445:9840   */\n      pop\n      pop\n      jump\t// out\n        /* \"#utility.yul\":9846:10026   */\n    tag_56:\n        /* \"#utility.yul\":9894:9971   */\n      0x4e487b7100000000000000000000000000000000000000000000000000000000\n        /* \"#utility.yul\":9891:9892   */\n      0x00\n        /* \"#utility.yul\":9884:9972   */\n      mstore\n        /* \"#utility.yul\":9991:9995   */\n      0x32\n        /* \"#utility.yul\":9988:9989   */\n      0x04\n        /* \"#utility.yul\":9981:9996   */\n      mstore\n        /* \"#utility.yul\":10015:10019   */\n      0x24\n        /* \"#utility.yul\":10012:10013   */\n      0x00\n        /* \"#utility.yul\":10005:10020   */\n      revert\n\n    auxdata: 0xa264697066735822122079d71059b04d8f2f9ee248e970984502de3ddd9d90407a042924cae03a2d22c564736f6c63430008110033\n}\n",
				"bytecode": {
					"linkReferences": {},
					"object": "608060405234801561001057600080fd5b50610993806100206000396000f3fe608060405234801561001057600080fd5b50600436106100885760003560e01c8063bc8bc2b41161005b578063bc8bc2b4146100c7578063dd68afb6146100f7578063e0a9a6fa14610127578063fe1c7f6f1461013157610088565b80632e5295ee1461008d57806384d6b2ab1461009757806395ffebf5146100a1578063982abb89146100bd575b600080fd5b610095610161565b005b61009f610163565b005b6100bb60048036038101906100b69190610503565b610165565b005b6100c561019d565b005b6100e160048036038101906100dc9190610582565b61019f565b6040516100ee919061062e565b60405180910390f35b610111600480360381019061010c9190610582565b61024b565b60405161011e919061062e565b60405180910390f35b61012f6102fb565b005b61014b60048036038101906101469190610582565b6102fd565b604051610158919061062e565b60405180910390f35b565b565b600081908060018154018082558091505060019003906000526020600020016000909190919091509081610199919061085c565b5050565b565b600081815481106101af57600080fd5b9060005260206000200160009150905080546101ca9061067f565b80601f01602080910402602001604051908101604052809291908181526020018280546101f69061067f565b80156102435780601f1061021857610100808354040283529160200191610243565b820191906000526020600020905b81548152906001019060200180831161022657829003601f168201915b505050505081565b6060600082815481106102615761026061092e565b5b9060005260206000200180546102769061067f565b80601f01602080910402602001604051908101604052809291908181526020018280546102a29061067f565b80156102ef5780601f106102c4576101008083540402835291602001916102ef565b820191906000526020600020905b8154815290600101906020018083116102d257829003601f168201915b50505050509050919050565b565b6001818154811061030d57600080fd5b9060005260206000200160009150905080546103289061067f565b80601f01602080910402602001604051908101604052809291908181526020018280546103549061067f565b80156103a15780601f10610376576101008083540402835291602001916103a1565b820191906000526020600020905b81548152906001019060200180831161038457829003601f168201915b505050505081565b6000604051905090565b600080fd5b600080fd5b600080fd5b600080fd5b6000601f19601f8301169050919050565b7f4e487b7100000000000000000000000000000000000000000000000000000000600052604160045260246000fd5b610410826103c7565b810181811067ffffffffffffffff8211171561042f5761042e6103d8565b5b80604052505050565b60006104426103a9565b905061044e8282610407565b919050565b600067ffffffffffffffff82111561046e5761046d6103d8565b5b610477826103c7565b9050602081019050919050565b82818337600083830152505050565b60006104a66104a184610453565b610438565b9050828152602081018484840111156104c2576104c16103c2565b5b6104cd848285610484565b509392505050565b600082601f8301126104ea576104e96103bd565b5b81356104fa848260208601610493565b91505092915050565b600060208284031215610519576105186103b3565b5b600082013567ffffffffffffffff811115610537576105366103b8565b5b610543848285016104d5565b91505092915050565b6000819050919050565b61055f8161054c565b811461056a57600080fd5b50565b60008135905061057c81610556565b92915050565b600060208284031215610598576105976103b3565b5b60006105a68482850161056d565b91505092915050565b600081519050919050565b600082825260208201905092915050565b60005b838110156105e95780820151818401526020810190506105ce565b60008484015250505050565b6000610600826105af565b61060a81856105ba565b935061061a8185602086016105cb565b610623816103c7565b840191505092915050565b6000602082019050818103600083015261064881846105f5565b905092915050565b7f4e487b7100000000000000000000000000000000000000000000000000000000600052602260045260246000fd5b6000600282049050600182168061069757607f821691505b6020821081036106aa576106a9610650565b5b50919050565b60008190508160005260206000209050919050565b60006020601f8301049050919050565b600082821b905092915050565b6000600883026107127fffffffffffffffffffffffffffffffffffffffffffffffffffffffffffffffff826106d5565b61071c86836106d5565b95508019841693508086168417925050509392505050565b6000819050919050565b600061075961075461074f8461054c565b610734565b61054c565b9050919050565b6000819050919050565b6107738361073e565b61078761077f82610760565b8484546106e2565b825550505050565b600090565b61079c61078f565b6107a781848461076a565b505050565b5b818110156107cb576107c0600082610794565b6001810190506107ad565b5050565b601f821115610810576107e1816106b0565b6107ea846106c5565b810160208510156107f9578190505b61080d610805856106c5565b8301826107ac565b50505b505050565b600082821c905092915050565b600061083360001984600802610815565b1980831691505092915050565b600061084c8383610822565b9150826002028217905092915050565b610865826105af565b67ffffffffffffffff81111561087e5761087d6103d8565b5b610888825461067f565b6108938282856107cf565b600060209050601f8311600181146108c657600084156108b4578287015190505b6108be8582610840565b865550610926565b601f1984166108d4866106b0565b60005b828110156108fc578489015182556001820191506020850194506020810190506108d7565b868310156109195784890151610915601f891682610822565b8355505b6001600288020188555050505b505050505050565b7f4e487b7100000000000000000000000000000000000000000000000000000000600052603260045260246000fdfea264697066735822122079d71059b04d8f2f9ee248e970984502de3ddd9d90407a042924cae03a2d22c564736f6c63430008110033",
					"opcodes": "PUSH1 0x80 PUSH1 0x40 MSTORE CALLVALUE DUP1 ISZERO PUSH2 0x10 JUMPI PUSH1 0x0 DUP1 REVERT JUMPDEST POP PUSH2 0x993 DUP1 PUSH2 0x20 PUSH1 0x0 CODECOPY PUSH1 0x0 RETURN INVALID PUSH1 0x80 PUSH1 0x40 MSTORE CALLVALUE DUP1 ISZERO PUSH2 0x10 JUMPI PUSH1 0x0 DUP1 REVERT JUMPDEST POP PUSH1 0x4 CALLDATASIZE LT PUSH2 0x88 JUMPI PUSH1 0x0 CALLDATALOAD PUSH1 0xE0 SHR DUP1 PUSH4 0xBC8BC2B4 GT PUSH2 0x5B JUMPI DUP1 PUSH4 0xBC8BC2B4 EQ PUSH2 0xC7 JUMPI DUP1 PUSH4 0xDD68AFB6 EQ PUSH2 0xF7 JUMPI DUP1 PUSH4 0xE0A9A6FA EQ PUSH2 0x127 JUMPI DUP1 PUSH4 0xFE1C7F6F EQ PUSH2 0x131 JUMPI PUSH2 0x88 JUMP JUMPDEST DUP1 PUSH4 0x2E5295EE EQ PUSH2 0x8D JUMPI DUP1 PUSH4 0x84D6B2AB EQ PUSH2 0x97 JUMPI DUP1 PUSH4 0x95FFEBF5 EQ PUSH2 0xA1 JUMPI DUP1 PUSH4 0x982ABB89 EQ PUSH2 0xBD JUMPI JUMPDEST PUSH1 0x0 DUP1 REVERT JUMPDEST PUSH2 0x95 PUSH2 0x161 JUMP JUMPDEST STOP JUMPDEST PUSH2 0x9F PUSH2 0x163 JUMP JUMPDEST STOP JUMPDEST PUSH2 0xBB PUSH1 0x4 DUP1 CALLDATASIZE SUB DUP2 ADD SWAP1 PUSH2 0xB6 SWAP2 SWAP1 PUSH2 0x503 JUMP JUMPDEST PUSH2 0x165 JUMP JUMPDEST STOP JUMPDEST PUSH2 0xC5 PUSH2 0x19D JUMP JUMPDEST STOP JUMPDEST PUSH2 0xE1 PUSH1 0x4 DUP1 CALLDATASIZE SUB DUP2 ADD SWAP1 PUSH2 0xDC SWAP2 SWAP1 PUSH2 0x582 JUMP JUMPDEST PUSH2 0x19F JUMP JUMPDEST PUSH1 0x40 MLOAD PUSH2 0xEE SWAP2 SWAP1 PUSH2 0x62E JUMP JUMPDEST PUSH1 0x40 MLOAD DUP1 SWAP2 SUB SWAP1 RETURN JUMPDEST PUSH2 0x111 PUSH1 0x4 DUP1 CALLDATASIZE SUB DUP2 ADD SWAP1 PUSH2 0x10C SWAP2 SWAP1 PUSH2 0x582 JUMP JUMPDEST PUSH2 0x24B JUMP JUMPDEST PUSH1 0x40 MLOAD PUSH2 0x11E SWAP2 SWAP1 PUSH2 0x62E JUMP JUMPDEST PUSH1 0x40 MLOAD DUP1 SWAP2 SUB SWAP1 RETURN JUMPDEST PUSH2 0x12F PUSH2 0x2FB JUMP JUMPDEST STOP JUMPDEST PUSH2 0x14B PUSH1 0x4 DUP1 CALLDATASIZE SUB DUP2 ADD SWAP1 PUSH2 0x146 SWAP2 SWAP1 PUSH2 0x582 JUMP JUMPDEST PUSH2 0x2FD JUMP JUMPDEST PUSH1 0x40 MLOAD PUSH2 0x158 SWAP2 SWAP1 PUSH2 0x62E JUMP JUMPDEST PUSH1 0x40 MLOAD DUP1 SWAP2 SUB SWAP1 RETURN JUMPDEST JUMP JUMPDEST JUMP JUMPDEST PUSH1 0x0 DUP2 SWAP1 DUP1 PUSH1 0x1 DUP2 SLOAD ADD DUP1 DUP3 SSTORE DUP1 SWAP2 POP POP PUSH1 0x1 SWAP1 SUB SWAP1 PUSH1 0x0 MSTORE PUSH1 0x20 PUSH1 0x0 KECCAK256 ADD PUSH1 0x0 SWAP1 SWAP2 SWAP1 SWAP2 SWAP1 SWAP2 POP SWAP1 DUP2 PUSH2 0x199 SWAP2 SWAP1 PUSH2 0x85C JUMP JUMPDEST POP POP JUMP JUMPDEST JUMP JUMPDEST PUSH1 0x0 DUP2 DUP2 SLOAD DUP2 LT PUSH2 0x1AF JUMPI PUSH1 0x0 DUP1 REVERT JUMPDEST SWAP1 PUSH1 0x0 MSTORE PUSH1 0x20 PUSH1 0x0 KECCAK256 ADD PUSH1 0x0 SWAP2 POP SWAP1 POP DUP1 SLOAD PUSH2 0x1CA SWAP1 PUSH2 0x67F JUMP JUMPDEST DUP1 PUSH1 0x1F ADD PUSH1 0x20 DUP1 SWAP2 DIV MUL PUSH1 0x20 ADD PUSH1 0x40 MLOAD SWAP1 DUP2 ADD PUSH1 0x40 MSTORE DUP1 SWAP3 SWAP2 SWAP1 DUP2 DUP2 MSTORE PUSH1 0x20 ADD DUP3 DUP1 SLOAD PUSH2 0x1F6 SWAP1 PUSH2 0x67F JUMP JUMPDEST DUP1 ISZERO PUSH2 0x243 JUMPI DUP1 PUSH1 0x1F LT PUSH2 0x218 JUMPI PUSH2 0x100 DUP1 DUP4 SLOAD DIV MUL DUP4 MSTORE SWAP2 PUSH1 0x20 ADD SWAP2 PUSH2 0x243 JUMP JUMPDEST DUP3 ADD SWAP2 SWAP1 PUSH1 0x0 MSTORE PUSH1 0x20 PUSH1 0x0 KECCAK256 SWAP1 JUMPDEST DUP2 SLOAD DUP2 MSTORE SWAP1 PUSH1 0x1 ADD SWAP1 PUSH1 0x20 ADD DUP1 DUP4 GT PUSH2 0x226 JUMPI DUP3 SWAP1 SUB PUSH1 0x1F AND DUP3 ADD SWAP2 JUMPDEST POP POP POP POP POP DUP2 JUMP JUMPDEST PUSH1 0x60 PUSH1 0x0 DUP3 DUP2 SLOAD DUP2 LT PUSH2 0x261 JUMPI PUSH2 0x260 PUSH2 0x92E JUMP JUMPDEST JUMPDEST SWAP1 PUSH1 0x0 MSTORE PUSH1 0x20 PUSH1 0x0 KECCAK256 ADD DUP1 SLOAD PUSH2 0x276 SWAP1 PUSH2 0x67F JUMP JUMPDEST DUP1 PUSH1 0x1F ADD PUSH1 0x20 DUP1 SWAP2 DIV MUL PUSH1 0x20 ADD PUSH1 0x40 MLOAD SWAP1 DUP2 ADD PUSH1 0x40 MSTORE DUP1 SWAP3 SWAP2 SWAP1 DUP2 DUP2 MSTORE PUSH1 0x20 ADD DUP3 DUP1 SLOAD PUSH2 0x2A2 SWAP1 PUSH2 0x67F JUMP JUMPDEST DUP1 ISZERO PUSH2 0x2EF JUMPI DUP1 PUSH1 0x1F LT PUSH2 0x2C4 JUMPI PUSH2 0x100 DUP1 DUP4 SLOAD DIV MUL DUP4 MSTORE SWAP2 PUSH1 0x20 ADD SWAP2 PUSH2 0x2EF JUMP JUMPDEST DUP3 ADD SWAP2 SWAP1 PUSH1 0x0 MSTORE PUSH1 0x20 PUSH1 0x0 KECCAK256 SWAP1 JUMPDEST DUP2 SLOAD DUP2 MSTORE SWAP1 PUSH1 0x1 ADD SWAP1 PUSH1 0x20 ADD DUP1 DUP4 GT PUSH2 0x2D2 JUMPI DUP3 SWAP1 SUB PUSH1 0x1F AND DUP3 ADD SWAP2 JUMPDEST POP POP POP POP POP SWAP1 POP SWAP2 SWAP1 POP JUMP JUMPDEST JUMP JUMPDEST PUSH1 0x1 DUP2 DUP2 SLOAD DUP2 LT PUSH2 0x30D JUMPI PUSH1 0x0 DUP1 REVERT JUMPDEST SWAP1 PUSH1 0x0 MSTORE PUSH1 0x20 PUSH1 0x0 KECCAK256 ADD PUSH1 0x0 SWAP2 POP SWAP1 POP DUP1 SLOAD PUSH2 0x328 SWAP1 PUSH2 0x67F JUMP JUMPDEST DUP1 PUSH1 0x1F ADD PUSH1 0x20 DUP1 SWAP2 DIV MUL PUSH1 0x20 ADD PUSH1 0x40 MLOAD SWAP1 DUP2 ADD PUSH1 0x40 MSTORE DUP1 SWAP3 SWAP2 SWAP1 DUP2 DUP2 MSTORE PUSH1 0x20 ADD DUP3 DUP1 SLOAD PUSH2 0x354 SWAP1 PUSH2 0x67F JUMP JUMPDEST DUP1 ISZERO PUSH2 0x3A1 JUMPI DUP1 PUSH1 0x1F LT PUSH2 0x376 JUMPI PUSH2 0x100 DUP1 DUP4 SLOAD DIV MUL DUP4 MSTORE SWAP2 PUSH1 0x20 ADD SWAP2 PUSH2 0x3A1 JUMP JUMPDEST DUP3 ADD SWAP2 SWAP1 PUSH1 0x0 MSTORE PUSH1 0x20 PUSH1 0x0 KECCAK256 SWAP1 JUMPDEST DUP2 SLOAD DUP2 MSTORE SWAP1 PUSH1 0x1 ADD SWAP1 PUSH1 0x20 ADD DUP1 DUP4 GT PUSH2 0x384 JUMPI DUP3 SWAP1 SUB PUSH1 0x1F AND DUP3 ADD SWAP2 JUMPDEST POP POP POP POP POP DUP2 JUMP JUMPDEST PUSH1 0x0 PUSH1 0x40 MLOAD SWAP1 POP SWAP1 JUMP JUMPDEST PUSH1 0x0 DUP1 REVERT JUMPDEST PUSH1 0x0 DUP1 REVERT JUMPDEST PUSH1 0x0 DUP1 REVERT JUMPDEST PUSH1 0x0 DUP1 REVERT JUMPDEST PUSH1 0x0 PUSH1 0x1F NOT PUSH1 0x1F DUP4 ADD AND SWAP1 POP SWAP2 SWAP1 POP JUMP JUMPDEST PUSH32 0x4E487B7100000000000000000000000000000000000000000000000000000000 PUSH1 0x0 MSTORE PUSH1 0x41 PUSH1 0x4 MSTORE PUSH1 0x24 PUSH1 0x0 REVERT JUMPDEST PUSH2 0x410 DUP3 PUSH2 0x3C7 JUMP JUMPDEST DUP2 ADD DUP2 DUP2 LT PUSH8 0xFFFFFFFFFFFFFFFF DUP3 GT OR ISZERO PUSH2 0x42F JUMPI PUSH2 0x42E PUSH2 0x3D8 JUMP JUMPDEST JUMPDEST DUP1 PUSH1 0x40 MSTORE POP POP POP JUMP JUMPDEST PUSH1 0x0 PUSH2 0x442 PUSH2 0x3A9 JUMP JUMPDEST SWAP1 POP PUSH2 0x44E DUP3 DUP3 PUSH2 0x407 JUMP JUMPDEST SWAP2 SWAP1 POP JUMP JUMPDEST PUSH1 0x0 PUSH8 0xFFFFFFFFFFFFFFFF DUP3 GT ISZERO PUSH2 0x46E JUMPI PUSH2 0x46D PUSH2 0x3D8 JUMP JUMPDEST JUMPDEST PUSH2 0x477 DUP3 PUSH2 0x3C7 JUMP JUMPDEST SWAP1 POP PUSH1 0x20 DUP2 ADD SWAP1 POP SWAP2 SWAP1 POP JUMP JUMPDEST DUP3 DUP2 DUP4 CALLDATACOPY PUSH1 0x0 DUP4 DUP4 ADD MSTORE POP POP POP JUMP JUMPDEST PUSH1 0x0 PUSH2 0x4A6 PUSH2 0x4A1 DUP5 PUSH2 0x453 JUMP JUMPDEST PUSH2 0x438 JUMP JUMPDEST SWAP1 POP DUP3 DUP2 MSTORE PUSH1 0x20 DUP2 ADD DUP5 DUP5 DUP5 ADD GT ISZERO PUSH2 0x4C2 JUMPI PUSH2 0x4C1 PUSH2 0x3C2 JUMP JUMPDEST JUMPDEST PUSH2 0x4CD DUP5 DUP3 DUP6 PUSH2 0x484 JUMP JUMPDEST POP SWAP4 SWAP3 POP POP POP JUMP JUMPDEST PUSH1 0x0 DUP3 PUSH1 0x1F DUP4 ADD SLT PUSH2 0x4EA JUMPI PUSH2 0x4E9 PUSH2 0x3BD JUMP JUMPDEST JUMPDEST DUP2 CALLDATALOAD PUSH2 0x4FA DUP5 DUP3 PUSH1 0x20 DUP7 ADD PUSH2 0x493 JUMP JUMPDEST SWAP2 POP POP SWAP3 SWAP2 POP POP JUMP JUMPDEST PUSH1 0x0 PUSH1 0x20 DUP3 DUP5 SUB SLT ISZERO PUSH2 0x519 JUMPI PUSH2 0x518 PUSH2 0x3B3 JUMP JUMPDEST JUMPDEST PUSH1 0x0 DUP3 ADD CALLDATALOAD PUSH8 0xFFFFFFFFFFFFFFFF DUP2 GT ISZERO PUSH2 0x537 JUMPI PUSH2 0x536 PUSH2 0x3B8 JUMP JUMPDEST JUMPDEST PUSH2 0x543 DUP5 DUP3 DUP6 ADD PUSH2 0x4D5 JUMP JUMPDEST SWAP2 POP POP SWAP3 SWAP2 POP POP JUMP JUMPDEST PUSH1 0x0 DUP2 SWAP1 POP SWAP2 SWAP1 POP JUMP JUMPDEST PUSH2 0x55F DUP2 PUSH2 0x54C JUMP JUMPDEST DUP2 EQ PUSH2 0x56A JUMPI PUSH1 0x0 DUP1 REVERT JUMPDEST POP JUMP JUMPDEST PUSH1 0x0 DUP2 CALLDATALOAD SWAP1 POP PUSH2 0x57C DUP2 PUSH2 0x556 JUMP JUMPDEST SWAP3 SWAP2 POP POP JUMP JUMPDEST PUSH1 0x0 PUSH1 0x20 DUP3 DUP5 SUB SLT ISZERO PUSH2 0x598 JUMPI PUSH2 0x597 PUSH2 0x3B3 JUMP JUMPDEST JUMPDEST PUSH1 0x0 PUSH2 0x5A6 DUP5 DUP3 DUP6 ADD PUSH2 0x56D JUMP JUMPDEST SWAP2 POP POP SWAP3 SWAP2 POP POP JUMP JUMPDEST PUSH1 0x0 DUP2 MLOAD SWAP1 POP SWAP2 SWAP1 POP JUMP JUMPDEST PUSH1 0x0 DUP3 DUP3 MSTORE PUSH1 0x20 DUP3 ADD SWAP1 POP SWAP3 SWAP2 POP POP JUMP JUMPDEST PUSH1 0x0 JUMPDEST DUP4 DUP2 LT ISZERO PUSH2 0x5E9 JUMPI DUP1 DUP3 ADD MLOAD DUP2 DUP5 ADD MSTORE PUSH1 0x20 DUP2 ADD SWAP1 POP PUSH2 0x5CE JUMP JUMPDEST PUSH1 0x0 DUP5 DUP5 ADD MSTORE POP POP POP POP JUMP JUMPDEST PUSH1 0x0 PUSH2 0x600 DUP3 PUSH2 0x5AF JUMP JUMPDEST PUSH2 0x60A DUP2 DUP6 PUSH2 0x5BA JUMP JUMPDEST SWAP4 POP PUSH2 0x61A DUP2 DUP6 PUSH1 0x20 DUP7 ADD PUSH2 0x5CB JUMP JUMPDEST PUSH2 0x623 DUP2 PUSH2 0x3C7 JUMP JUMPDEST DUP5 ADD SWAP2 POP POP SWAP3 SWAP2 POP POP JUMP JUMPDEST PUSH1 0x0 PUSH1 0x20 DUP3 ADD SWAP1 POP DUP2 DUP2 SUB PUSH1 0x0 DUP4 ADD MSTORE PUSH2 0x648 DUP2 DUP5 PUSH2 0x5F5 JUMP JUMPDEST SWAP1 POP SWAP3 SWAP2 POP POP JUMP JUMPDEST PUSH32 0x4E487B7100000000000000000000000000000000000000000000000000000000 PUSH1 0x0 MSTORE PUSH1 0x22 PUSH1 0x4 MSTORE PUSH1 0x24 PUSH1 0x0 REVERT JUMPDEST PUSH1 0x0 PUSH1 0x2 DUP3 DIV SWAP1 POP PUSH1 0x1 DUP3 AND DUP1 PUSH2 0x697 JUMPI PUSH1 0x7F DUP3 AND SWAP2 POP JUMPDEST PUSH1 0x20 DUP3 LT DUP2 SUB PUSH2 0x6AA JUMPI PUSH2 0x6A9 PUSH2 0x650 JUMP JUMPDEST JUMPDEST POP SWAP2 SWAP1 POP JUMP JUMPDEST PUSH1 0x0 DUP2 SWAP1 POP DUP2 PUSH1 0x0 MSTORE PUSH1 0x20 PUSH1 0x0 KECCAK256 SWAP1 POP SWAP2 SWAP1 POP JUMP JUMPDEST PUSH1 0x0 PUSH1 0x20 PUSH1 0x1F DUP4 ADD DIV SWAP1 POP SWAP2 SWAP1 POP JUMP JUMPDEST PUSH1 0x0 DUP3 DUP3 SHL SWAP1 POP SWAP3 SWAP2 POP POP JUMP JUMPDEST PUSH1 0x0 PUSH1 0x8 DUP4 MUL PUSH2 0x712 PUSH32 0xFFFFFFFFFFFFFFFFFFFFFFFFFFFFFFFFFFFFFFFFFFFFFFFFFFFFFFFFFFFFFFFF DUP3 PUSH2 0x6D5 JUMP JUMPDEST PUSH2 0x71C DUP7 DUP4 PUSH2 0x6D5 JUMP JUMPDEST SWAP6 POP DUP1 NOT DUP5 AND SWAP4 POP DUP1 DUP7 AND DUP5 OR SWAP3 POP POP POP SWAP4 SWAP3 POP POP POP JUMP JUMPDEST PUSH1 0x0 DUP2 SWAP1 POP SWAP2 SWAP1 POP JUMP JUMPDEST PUSH1 0x0 PUSH2 0x759 PUSH2 0x754 PUSH2 0x74F DUP5 PUSH2 0x54C JUMP JUMPDEST PUSH2 0x734 JUMP JUMPDEST PUSH2 0x54C JUMP JUMPDEST SWAP1 POP SWAP2 SWAP1 POP JUMP JUMPDEST PUSH1 0x0 DUP2 SWAP1 POP SWAP2 SWAP1 POP JUMP JUMPDEST PUSH2 0x773 DUP4 PUSH2 0x73E JUMP JUMPDEST PUSH2 0x787 PUSH2 0x77F DUP3 PUSH2 0x760 JUMP JUMPDEST DUP5 DUP5 SLOAD PUSH2 0x6E2 JUMP JUMPDEST DUP3 SSTORE POP POP POP POP JUMP JUMPDEST PUSH1 0x0 SWAP1 JUMP JUMPDEST PUSH2 0x79C PUSH2 0x78F JUMP JUMPDEST PUSH2 0x7A7 DUP2 DUP5 DUP5 PUSH2 0x76A JUMP JUMPDEST POP POP POP JUMP JUMPDEST JUMPDEST DUP2 DUP2 LT ISZERO PUSH2 0x7CB JUMPI PUSH2 0x7C0 PUSH1 0x0 DUP3 PUSH2 0x794 JUMP JUMPDEST PUSH1 0x1 DUP2 ADD SWAP1 POP PUSH2 0x7AD JUMP JUMPDEST POP POP JUMP JUMPDEST PUSH1 0x1F DUP3 GT ISZERO PUSH2 0x810 JUMPI PUSH2 0x7E1 DUP2 PUSH2 0x6B0 JUMP JUMPDEST PUSH2 0x7EA DUP5 PUSH2 0x6C5 JUMP JUMPDEST DUP2 ADD PUSH1 0x20 DUP6 LT ISZERO PUSH2 0x7F9 JUMPI DUP2 SWAP1 POP JUMPDEST PUSH2 0x80D PUSH2 0x805 DUP6 PUSH2 0x6C5 JUMP JUMPDEST DUP4 ADD DUP3 PUSH2 0x7AC JUMP JUMPDEST POP POP JUMPDEST POP POP POP JUMP JUMPDEST PUSH1 0x0 DUP3 DUP3 SHR SWAP1 POP SWAP3 SWAP2 POP POP JUMP JUMPDEST PUSH1 0x0 PUSH2 0x833 PUSH1 0x0 NOT DUP5 PUSH1 0x8 MUL PUSH2 0x815 JUMP JUMPDEST NOT DUP1 DUP4 AND SWAP2 POP POP SWAP3 SWAP2 POP POP JUMP JUMPDEST PUSH1 0x0 PUSH2 0x84C DUP4 DUP4 PUSH2 0x822 JUMP JUMPDEST SWAP2 POP DUP3 PUSH1 0x2 MUL DUP3 OR SWAP1 POP SWAP3 SWAP2 POP POP JUMP JUMPDEST PUSH2 0x865 DUP3 PUSH2 0x5AF JUMP JUMPDEST PUSH8 0xFFFFFFFFFFFFFFFF DUP2 GT ISZERO PUSH2 0x87E JUMPI PUSH2 0x87D PUSH2 0x3D8 JUMP JUMPDEST JUMPDEST PUSH2 0x888 DUP3 SLOAD PUSH2 0x67F JUMP JUMPDEST PUSH2 0x893 DUP3 DUP3 DUP6 PUSH2 0x7CF JUMP JUMPDEST PUSH1 0x0 PUSH1 0x20 SWAP1 POP PUSH1 0x1F DUP4 GT PUSH1 0x1 DUP2 EQ PUSH2 0x8C6 JUMPI PUSH1 0x0 DUP5 ISZERO PUSH2 0x8B4 JUMPI DUP3 DUP8 ADD MLOAD SWAP1 POP JUMPDEST PUSH2 0x8BE DUP6 DUP3 PUSH2 0x840 JUMP JUMPDEST DUP7 SSTORE POP PUSH2 0x926 JUMP JUMPDEST PUSH1 0x1F NOT DUP5 AND PUSH2 0x8D4 DUP7 PUSH2 0x6B0 JUMP JUMPDEST PUSH1 0x0 JUMPDEST DUP3 DUP2 LT ISZERO PUSH2 0x8FC JUMPI DUP5 DUP10 ADD MLOAD DUP3 SSTORE PUSH1 0x1 DUP3 ADD SWAP2 POP PUSH1 0x20 DUP6 ADD SWAP5 POP PUSH1 0x20 DUP2 ADD SWAP1 POP PUSH2 0x8D7 JUMP JUMPDEST DUP7 DUP4 LT ISZERO PUSH2 0x919 JUMPI DUP5 DUP10 ADD MLOAD PUSH2 0x915 PUSH1 0x1F DUP10 AND DUP3 PUSH2 0x822 JUMP JUMPDEST DUP4 SSTORE POP JUMPDEST PUSH1 0x1 PUSH1 0x2 DUP9 MUL ADD DUP9 SSTORE POP POP POP JUMPDEST POP POP POP POP POP POP JUMP JUMPDEST PUSH32 0x4E487B7100000000000000000000000000000000000000000000000000000000 PUSH1 0x0 MSTORE PUSH1 0x32 PUSH1 0x4 MSTORE PUSH1 0x24 PUSH1 0x0 REVERT INVALID LOG2 PUSH5 0x6970667358 0x22 SLT KECCAK256 PUSH26 0xD71059B04D8F2F9EE248E970984502DE3DDD9D90407A042924CA 0xE0 GASPRICE 0x2D 0x22 0xC5 PUSH5 0x736F6C6343 STOP ADDMOD GT STOP CALLER "
				},
				"gasEstimates": {
					"creation": {
						"codeDepositCost": "490200",
						"executionCost": "524",
						"totalCost": "490724"
					},
					"external": {
						"addTodo(string)": "infinite",
						"delTodo()": "188",
						"getAllTodo()": "211",
						"getAllTodoComplete()": "167",
						"getTodo(uint256)": "infinite",
						"setCompleted()": "145",
						"todoCompleted(uint256)": "infinite",
						"todos(uint256)": "infinite"
					}
				},
				"methodIdentifiers": {
					"addTodo(string)": "95ffebf5",
					"delTodo()": "e0a9a6fa",
					"getAllTodo()": "982abb89",
					"getAllTodoComplete()": "84d6b2ab",
					"getTodo(uint256)": "dd68afb6",
					"setCompleted()": "2e5295ee",
					"todoCompleted(uint256)": "fe1c7f6f",
					"todos(uint256)": "bc8bc2b4"
				}
			},
			"storageLayout": {
				"storage": [
					{
						"astId": 4,
						"contract": "TodoPractice.sol:TodoList",
						"label": "todos",
						"offset": 0,
						"slot": "0",
						"type": "t_array(t_string_storage)dyn_storage"
					},
					{
						"astId": 7,
						"contract": "TodoPractice.sol:TodoList",
						"label": "todoCompleted",
						"offset": 0,
						"slot": "1",
						"type": "t_array(t_string_storage)dyn_storage"
					}
				],
				"types": {
					"t_array(t_string_storage)dyn_storage": {
						"base": "t_string_storage",
						"encoding": "dynamic_array",
						"label": "string[]",
						"numberOfBytes": "32"
					},
					"t_string_storage": {
						"encoding": "bytes",
						"label": "string",
						"numberOfBytes": "32"
					}
				}
			},
			"userdoc": {
				"kind": "user",
				"methods": {
					"addTodo(string)": {
						"notice": "新增 todo"
					},
					"delTodo()": {
						"notice": "刪除 todo"
					},
					"getAllTodo()": {
						"notice": "查看所有 todo"
					},
					"getAllTodoComplete()": {
						"notice": "查看所有 completed"
					},
					"getTodo(uint256)": {
						"notice": "查看指定 todo"
					},
					"setCompleted()": {
						"notice": "todo 改為 completed"
					}
				},
				"version": 1
			}
		}
	}
}