{
	"data": {
		"bytecode": {
			"linkReferences": {},
			"object": "6080604052348015600f57600080fd5b50606180601d6000396000f3fe608060405260043610601c5760003560e01c80637aa1469f146021575b600080fd5b60276029565b005b56fea2646970667358221220bfafbe03173110bbb34faa8082e5d0c23868d6c0f6b1191bde4733980f46354764736f6c63430008120033",
			"opcodes": "PUSH1 0x80 PUSH1 0x40 MSTORE CALLVALUE DUP1 ISZERO PUSH1 0xF JUMPI PUSH1 0x0 DUP1 REVERT JUMPDEST POP PUSH1 0x61 DUP1 PUSH1 0x1D PUSH1 0x0 CODECOPY PUSH1 0x0 RETURN INVALID PUSH1 0x80 PUSH1 0x40 MSTORE PUSH1 0x4 CALLDATASIZE LT PUSH1 0x1C JUMPI PUSH1 0x0 CALLDATALOAD PUSH1 0xE0 SHR DUP1 PUSH4 0x7AA1469F EQ PUSH1 0x21 JUMPI JUMPDEST PUSH1 0x0 DUP1 REVERT JUMPDEST PUSH1 0x27 PUSH1 0x29 JUMP JUMPDEST STOP JUMPDEST JUMP INVALID LOG2 PUSH5 0x6970667358 0x22 SLT KECCAK256 0xBF 0xAF 0xBE SUB OR BALANCE LT 0xBB 0xB3 0x4F 0xAA DUP1 DUP3 0xE5 0xD0 0xC2 CODESIZE PUSH9 0xD6C0F6B1191BDE4733 SWAP9 0xF CHAINID CALLDATALOAD SELFBALANCE PUSH5 0x736F6C6343 STOP ADDMOD SLT STOP CALLER "
		},
		"deployedBytecode": {
			"immutableReferences": {},
			"linkReferences": {},
			"object": "608060405260043610601c5760003560e01c80637aa1469f146021575b600080fd5b60276029565b005b56fea2646970667358221220bfafbe03173110bbb34faa8082e5d0c23868d6c0f6b1191bde4733980f46354764736f6c63430008120033",
			"opcodes": "PUSH1 0x80 PUSH1 0x40 MSTORE PUSH1 0x4 CALLDATASIZE LT PUSH1 0x1C JUMPI PUSH1 0x0 CALLDATALOAD PUSH1 0xE0 SHR DUP1 PUSH4 0x7AA1469F EQ PUSH1 0x21 JUMPI JUMPDEST PUSH1 0x0 DUP1 REVERT JUMPDEST PUSH1 0x27 PUSH1 0x29 JUMP JUMPDEST STOP JUMPDEST JUMP INVALID LOG2 PUSH5 0x6970667358 0x22 SLT KECCAK256 0xBF 0xAF 0xBE SUB OR BALANCE LT 0xBB 0xB3 0x4F 0xAA DUP1 DUP3 0xE5 0xD0 0xC2 CODESIZE PUSH9 0xD6C0F6B1191BDE4733 SWAP9 0xF CHAINID CALLDATALOAD SELFBALANCE PUSH5 0x736F6C6343 STOP ADDMOD SLT STOP CALLER "
		},
		"gasEstimates": {
			"creation": {
				"codeDepositCost": "19400",
				"executionCost": "75",
				"totalCost": "19475"
			},
			"external": {
				"giveMeMoney()": "98"
			}
		},
		"methodIdentifiers": {
			"giveMeMoney()": "7aa1469f"
		}
	},
	"abi": [
		{
			"inputs": [],
			"name": "giveMeMoney",
			"outputs": [],
			"stateMutability": "payable",
			"type": "function"
		}
	]
}